{
  "_format": "hh-sol-artifact-1",
  "contractName": "SUPER",
  "sourceName": "contracts/SUPER.sol",
  "abi": [
    {
      "inputs": [],
      "stateMutability": "nonpayable",
      "type": "constructor"
    },
    {
      "inputs": [],
      "name": "InvalidShortString",
      "type": "error"
    },
    {
      "inputs": [
        {
          "internalType": "string",
          "name": "str",
          "type": "string"
        }
      ],
      "name": "StringTooLong",
      "type": "error"
    },
    {
      "anonymous": false,
      "inputs": [
        {
          "indexed": true,
          "internalType": "address",
          "name": "owner",
          "type": "address"
        },
        {
          "indexed": true,
          "internalType": "address",
          "name": "spender",
          "type": "address"
        },
        {
          "indexed": false,
          "internalType": "uint256",
          "name": "value",
          "type": "uint256"
        }
      ],
      "name": "Approval",
      "type": "event"
    },
    {
      "anonymous": false,
      "inputs": [],
      "name": "EIP712DomainChanged",
      "type": "event"
    },
    {
      "anonymous": false,
      "inputs": [
        {
          "indexed": true,
          "internalType": "address",
          "name": "minter",
          "type": "address"
        }
      ],
      "name": "MinterAdded",
      "type": "event"
    },
    {
      "anonymous": false,
      "inputs": [
        {
          "indexed": true,
          "internalType": "address",
          "name": "minter",
          "type": "address"
        }
      ],
      "name": "MinterRemoved",
      "type": "event"
    },
    {
      "anonymous": false,
      "inputs": [
        {
          "indexed": true,
          "internalType": "address",
          "name": "previousOwner",
          "type": "address"
        },
        {
          "indexed": true,
          "internalType": "address",
          "name": "newOwner",
          "type": "address"
        }
      ],
      "name": "OwnershipTransferred",
      "type": "event"
    },
    {
      "anonymous": false,
      "inputs": [
        {
          "indexed": true,
          "internalType": "address",
          "name": "from",
          "type": "address"
        },
        {
          "indexed": false,
          "internalType": "uint256",
          "name": "amount",
          "type": "uint256"
        }
      ],
      "name": "TokensBurned",
      "type": "event"
    },
    {
      "anonymous": false,
      "inputs": [
        {
          "indexed": true,
          "internalType": "address",
          "name": "to",
          "type": "address"
        },
        {
          "indexed": false,
          "internalType": "uint256",
          "name": "amount",
          "type": "uint256"
        }
      ],
      "name": "TokensMinted",
      "type": "event"
    },
    {
      "anonymous": false,
      "inputs": [
        {
          "indexed": true,
          "internalType": "address",
          "name": "from",
          "type": "address"
        },
        {
          "indexed": true,
          "internalType": "address",
          "name": "to",
          "type": "address"
        },
        {
          "indexed": false,
          "internalType": "uint256",
          "name": "value",
          "type": "uint256"
        }
      ],
      "name": "Transfer",
      "type": "event"
    },
    {
      "inputs": [],
      "name": "DOMAIN_SEPARATOR",
      "outputs": [
        {
          "internalType": "bytes32",
          "name": "",
          "type": "bytes32"
        }
      ],
      "stateMutability": "view",
      "type": "function"
    },
    {
      "inputs": [],
      "name": "TOTAL_SUPPLY",
      "outputs": [
        {
          "internalType": "uint256",
          "name": "",
          "type": "uint256"
        }
      ],
      "stateMutability": "view",
      "type": "function"
    },
    {
      "inputs": [
        {
          "internalType": "address",
          "name": "_minter",
          "type": "address"
        }
      ],
      "name": "addMinter",
      "outputs": [],
      "stateMutability": "nonpayable",
      "type": "function"
    },
    {
      "inputs": [
        {
          "internalType": "address",
          "name": "owner",
          "type": "address"
        },
        {
          "internalType": "address",
          "name": "spender",
          "type": "address"
        }
      ],
      "name": "allowance",
      "outputs": [
        {
          "internalType": "uint256",
          "name": "",
          "type": "uint256"
        }
      ],
      "stateMutability": "view",
      "type": "function"
    },
    {
      "inputs": [
        {
          "internalType": "address",
          "name": "spender",
          "type": "address"
        },
        {
          "internalType": "uint256",
          "name": "amount",
          "type": "uint256"
        }
      ],
      "name": "approve",
      "outputs": [
        {
          "internalType": "bool",
          "name": "",
          "type": "bool"
        }
      ],
      "stateMutability": "nonpayable",
      "type": "function"
    },
    {
      "inputs": [
        {
          "internalType": "address",
          "name": "account",
          "type": "address"
        }
      ],
      "name": "balanceOf",
      "outputs": [
        {
          "internalType": "uint256",
          "name": "",
          "type": "uint256"
        }
      ],
      "stateMutability": "view",
      "type": "function"
    },
    {
      "inputs": [
        {
          "internalType": "uint256",
          "name": "_amount",
          "type": "uint256"
        }
      ],
      "name": "burn",
      "outputs": [],
      "stateMutability": "nonpayable",
      "type": "function"
    },
    {
      "inputs": [
        {
          "internalType": "address",
          "name": "_account",
          "type": "address"
        },
        {
          "internalType": "uint256",
          "name": "_amount",
          "type": "uint256"
        }
      ],
      "name": "burnFrom",
      "outputs": [],
      "stateMutability": "nonpayable",
      "type": "function"
    },
    {
      "inputs": [],
      "name": "decimals",
      "outputs": [
        {
          "internalType": "uint8",
          "name": "",
          "type": "uint8"
        }
      ],
      "stateMutability": "view",
      "type": "function"
    },
    {
      "inputs": [
        {
          "internalType": "address",
          "name": "spender",
          "type": "address"
        },
        {
          "internalType": "uint256",
          "name": "subtractedValue",
          "type": "uint256"
        }
      ],
      "name": "decreaseAllowance",
      "outputs": [
        {
          "internalType": "bool",
          "name": "",
          "type": "bool"
        }
      ],
      "stateMutability": "nonpayable",
      "type": "function"
    },
    {
      "inputs": [],
      "name": "eip712Domain",
      "outputs": [
        {
          "internalType": "bytes1",
          "name": "fields",
          "type": "bytes1"
        },
        {
          "internalType": "string",
          "name": "name",
          "type": "string"
        },
        {
          "internalType": "string",
          "name": "version",
          "type": "string"
        },
        {
          "internalType": "uint256",
          "name": "chainId",
          "type": "uint256"
        },
        {
          "internalType": "address",
          "name": "verifyingContract",
          "type": "address"
        },
        {
          "internalType": "bytes32",
          "name": "salt",
          "type": "bytes32"
        },
        {
          "internalType": "uint256[]",
          "name": "extensions",
          "type": "uint256[]"
        }
      ],
      "stateMutability": "view",
      "type": "function"
    },
    {
      "inputs": [
        {
          "internalType": "address",
          "name": "spender",
          "type": "address"
        },
        {
          "internalType": "uint256",
          "name": "addedValue",
          "type": "uint256"
        }
      ],
      "name": "increaseAllowance",
      "outputs": [
        {
          "internalType": "bool",
          "name": "",
          "type": "bool"
        }
      ],
      "stateMutability": "nonpayable",
      "type": "function"
    },
    {
      "inputs": [
        {
          "internalType": "address",
          "name": "_account",
          "type": "address"
        }
      ],
      "name": "isMinter",
      "outputs": [
        {
          "internalType": "bool",
          "name": "",
          "type": "bool"
        }
      ],
      "stateMutability": "view",
      "type": "function"
    },
    {
      "inputs": [
        {
          "internalType": "address",
          "name": "_to",
          "type": "address"
        },
        {
          "internalType": "uint256",
          "name": "_amount",
          "type": "uint256"
        }
      ],
      "name": "mint",
      "outputs": [],
      "stateMutability": "nonpayable",
      "type": "function"
    },
    {
      "inputs": [
        {
          "internalType": "address",
          "name": "",
          "type": "address"
        }
      ],
      "name": "minters",
      "outputs": [
        {
          "internalType": "bool",
          "name": "",
          "type": "bool"
        }
      ],
      "stateMutability": "view",
      "type": "function"
    },
    {
      "inputs": [],
      "name": "name",
      "outputs": [
        {
          "internalType": "string",
          "name": "",
          "type": "string"
        }
      ],
      "stateMutability": "view",
      "type": "function"
    },
    {
      "inputs": [
        {
          "internalType": "address",
          "name": "owner",
          "type": "address"
        }
      ],
      "name": "nonces",
      "outputs": [
        {
          "internalType": "uint256",
          "name": "",
          "type": "uint256"
        }
      ],
      "stateMutability": "view",
      "type": "function"
    },
    {
      "inputs": [],
      "name": "owner",
      "outputs": [
        {
          "internalType": "address",
          "name": "",
          "type": "address"
        }
      ],
      "stateMutability": "view",
      "type": "function"
    },
    {
      "inputs": [
        {
          "internalType": "address",
          "name": "owner",
          "type": "address"
        },
        {
          "internalType": "address",
          "name": "spender",
          "type": "address"
        },
        {
          "internalType": "uint256",
          "name": "value",
          "type": "uint256"
        },
        {
          "internalType": "uint256",
          "name": "deadline",
          "type": "uint256"
        },
        {
          "internalType": "uint8",
          "name": "v",
          "type": "uint8"
        },
        {
          "internalType": "bytes32",
          "name": "r",
          "type": "bytes32"
        },
        {
          "internalType": "bytes32",
          "name": "s",
          "type": "bytes32"
        }
      ],
      "name": "permit",
      "outputs": [],
      "stateMutability": "nonpayable",
      "type": "function"
    },
    {
      "inputs": [],
      "name": "remainingSupply",
      "outputs": [
        {
          "internalType": "uint256",
          "name": "",
          "type": "uint256"
        }
      ],
      "stateMutability": "view",
      "type": "function"
    },
    {
      "inputs": [
        {
          "internalType": "address",
          "name": "_minter",
          "type": "address"
        }
      ],
      "name": "removeMinter",
      "outputs": [],
      "stateMutability": "nonpayable",
      "type": "function"
    },
    {
      "inputs": [],
      "name": "renounceOwnership",
      "outputs": [],
      "stateMutability": "nonpayable",
      "type": "function"
    },
    {
      "inputs": [],
      "name": "symbol",
      "outputs": [
        {
          "internalType": "string",
          "name": "",
          "type": "string"
        }
      ],
      "stateMutability": "view",
      "type": "function"
    },
    {
      "inputs": [],
      "name": "totalMinted",
      "outputs": [
        {
          "internalType": "uint256",
          "name": "",
          "type": "uint256"
        }
      ],
      "stateMutability": "view",
      "type": "function"
    },
    {
      "inputs": [],
      "name": "totalSupply",
      "outputs": [
        {
          "internalType": "uint256",
          "name": "",
          "type": "uint256"
        }
      ],
      "stateMutability": "view",
      "type": "function"
    },
    {
      "inputs": [
        {
          "internalType": "address",
          "name": "to",
          "type": "address"
        },
        {
          "internalType": "uint256",
          "name": "amount",
          "type": "uint256"
        }
      ],
      "name": "transfer",
      "outputs": [
        {
          "internalType": "bool",
          "name": "",
          "type": "bool"
        }
      ],
      "stateMutability": "nonpayable",
      "type": "function"
    },
    {
      "inputs": [
        {
          "internalType": "address",
          "name": "from",
          "type": "address"
        },
        {
          "internalType": "address",
          "name": "to",
          "type": "address"
        },
        {
          "internalType": "uint256",
          "name": "amount",
          "type": "uint256"
        }
      ],
      "name": "transferFrom",
      "outputs": [
        {
          "internalType": "bool",
          "name": "",
          "type": "bool"
        }
      ],
      "stateMutability": "nonpayable",
      "type": "function"
    },
    {
      "inputs": [
        {
          "internalType": "address",
          "name": "newOwner",
          "type": "address"
        }
      ],
      "name": "transferOwnership",
      "outputs": [],
      "stateMutability": "nonpayable",
      "type": "function"
    }
  ],
  "bytecode": "0x6101606040523480156200001257600080fd5b506040518060400160405280601181526020017021b7b4b710283630b732ba102a37b5b2b760791b81525080604051806040016040528060018152602001603160f81b8152506040518060400160405280601181526020017021b7b4b710283630b732ba102a37b5b2b760791b8152506040518060400160405280600581526020016429aaa822a960d91b8152508160039081620000b191906200031b565b506004620000c082826200031b565b505050620000dd620000d76200019960201b60201c565b6200019d565b620000ea826006620001ef565b61012052620000fb816007620001ef565b61014052815160208084019190912060e052815190820120610100524660a0526200018960e05161010051604080517f8b73c3c69bb8fe3d512ecc4cf759cc79239f7b179b0ffacaa9a75d522b39400f60208201529081019290925260608201524660808201523060a082015260009060c00160405160208183030381529060405280519060200120905090565b60805250503060c052506200045d565b3390565b600580546001600160a01b038381166001600160a01b0319831681179093556040519116919082907f8be0079c531659141344cd1fd0a4f28419497f9722a3daafe3b4186f6b6457e090600090a35050565b60006020835110156200020f57620002078362000228565b905062000222565b816200021c84826200031b565b5060ff90505b92915050565b600080829050601f815111156200025f578260405163305a27a960e01b8152600401620002569190620003e7565b60405180910390fd5b80516200026c8262000438565b179392505050565b634e487b7160e01b600052604160045260246000fd5b600181811c908216806200029f57607f821691505b602082108103620002c057634e487b7160e01b600052602260045260246000fd5b50919050565b601f82111562000316576000816000526020600020601f850160051c81016020861015620002f15750805b601f850160051c820191505b818110156200031257828155600101620002fd565b5050505b505050565b81516001600160401b0381111562000337576200033762000274565b6200034f816200034884546200028a565b84620002c6565b602080601f8311600181146200038757600084156200036e5750858301515b600019600386901b1c1916600185901b17855562000312565b600085815260208120601f198616915b82811015620003b85788860151825594840194600190910190840162000397565b5085821015620003d75787850151600019600388901b60f8161c191681555b5050505050600190811b01905550565b60006020808352835180602085015260005b818110156200041757858101830151858201604001528201620003f9565b506000604082860101526040601f19601f8301168501019250505092915050565b80516020808301519190811015620002c05760001960209190910360031b1b16919050565b60805160a05160c05160e051610100516101205161014051611a0a620004b860003960006108360152600061080b015260006110a80152600061108001526000610fdb015260006110050152600061102f0152611a0a6000f3fe608060405234801561001057600080fd5b50600436106101c45760003560e01c806384b0196e116100f9578063a9059cbb11610097578063da0239a611610071578063da0239a6146103a4578063dd62ed3e146103ac578063f2fde38b146103bf578063f46eccc4146103d257600080fd5b8063a9059cbb1461036b578063aa271e1a1461037e578063d505accf1461039157600080fd5b806395d89b41116100d357806395d89b4114610334578063983b2d561461033c578063a2309ff81461034f578063a457c2d71461035857600080fd5b806384b0196e146102eb5780638da5cb5b14610306578063902d55a51461032157600080fd5b8063395093511161016657806370a082311161014057806370a0823114610294578063715018a6146102bd57806379cc6790146102c55780637ecebe00146102d857600080fd5b8063395093511461025b57806340c10f191461026e57806342966c681461028157600080fd5b806323b872dd116101a257806323b872dd1461021c5780633092afd51461022f578063313ce567146102445780633644e5151461025357600080fd5b806306fdde03146101c9578063095ea7b3146101e757806318160ddd1461020a575b600080fd5b6101d16103f5565b6040516101de919061173f565b60405180910390f35b6101fa6101f5366004611775565b610487565b60405190151581526020016101de565b6002545b6040519081526020016101de565b6101fa61022a36600461179f565b6104a1565b61024261023d3660046117db565b6104c5565b005b604051601281526020016101de565b61020e610583565b6101fa610269366004611775565b610592565b61024261027c366004611775565b6105b4565b61024261028f3660046117f6565b610745565b61020e6102a23660046117db565b6001600160a01b031660009081526020819052604090205490565b610242610786565b6102426102d3366004611775565b61079a565b61020e6102e63660046117db565b6107df565b6102f36107fd565b6040516101de979695949392919061180f565b6005546040516001600160a01b0390911681526020016101de565b61020e6b033b2e3c9fd0803ce800000081565b6101d1610886565b61024261034a3660046117db565b610895565b61020e600a5481565b6101fa610366366004611775565b610938565b6101fa610379366004611775565b6109b3565b6101fa61038c3660046117db565b6109c1565b61024261039f3660046118a8565b610a0e565b61020e610b72565b61020e6103ba36600461191b565b610b8e565b6102426103cd3660046117db565b610bb9565b6101fa6103e03660046117db565b600b6020526000908152604090205460ff1681565b6060600380546104049061194e565b80601f01602080910402602001604051908101604052809291908181526020018280546104309061194e565b801561047d5780601f106104525761010080835404028352916020019161047d565b820191906000526020600020905b81548152906001019060200180831161046057829003601f168201915b5050505050905090565b600033610495818585610c32565b60019150505b92915050565b6000336104af858285610d56565b6104ba858585610dd0565b506001949350505050565b6104cd610f74565b6001600160a01b0381166000908152600b602052604090205460ff1661053a5760405162461bcd60e51b815260206004820152601760248201527f41646472657373206973206e6f742061206d696e74657200000000000000000060448201526064015b60405180910390fd5b6001600160a01b0381166000818152600b6020526040808220805460ff19169055517fe94479a9f7e1952cc78f2d6baab678adc1b772d936c6583def489e524cb666929190a250565b600061058d610fce565b905090565b6000336104958185856105a58383610b8e565b6105af9190611998565b610c32565b6005546001600160a01b03163314806105dc5750336000908152600b602052604090205460ff165b6106285760405162461bcd60e51b815260206004820152601d60248201527f4f6e6c79206d696e746572206f72206f776e65722063616e206d696e740000006044820152606401610531565b6001600160a01b03821661067e5760405162461bcd60e51b815260206004820152601960248201527f496e76616c696420726563697069656e742061646472657373000000000000006044820152606401610531565b6b033b2e3c9fd0803ce800000081600a546106999190611998565b11156106dc5760405162461bcd60e51b815260206004820152601260248201527145786365656473206d617820737570706c7960701b6044820152606401610531565b80600a60008282546106ee9190611998565b909155506106fe905082826110f9565b816001600160a01b03167f3f2c9d57c068687834f0de942a9babb9e5acab57d516d3480a3c16ee165a42738260405161073991815260200190565b60405180910390a25050565b61074e816111b9565b60405181815233907ffd38818f5291bf0bb3a2a48aadc06ba8757865d1dabd804585338aab3009dcb69060200160405180910390a250565b61078e610f74565b61079860006111c3565b565b6107a48282611215565b816001600160a01b03167ffd38818f5291bf0bb3a2a48aadc06ba8757865d1dabd804585338aab3009dcb68260405161073991815260200190565b6001600160a01b03811660009081526008602052604081205461049b565b6000606080828080836108317f0000000000000000000000000000000000000000000000000000000000000000600661122a565b61085c7f0000000000000000000000000000000000000000000000000000000000000000600761122a565b60408051600080825260208201909252600f60f81b9b939a50919850469750309650945092509050565b6060600480546104049061194e565b61089d610f74565b6001600160a01b0381166108ec5760405162461bcd60e51b8152602060048201526016602482015275496e76616c6964206d696e746572206164647265737360501b6044820152606401610531565b6001600160a01b0381166000818152600b6020526040808220805460ff19166001179055517f6ae172837ea30b801fbfcdd4108aa1d5bf8ff775444fd70256b44e6bf3dfc3f69190a250565b600033816109468286610b8e565b9050838110156109a65760405162461bcd60e51b815260206004820152602560248201527f45524332303a2064656372656173656420616c6c6f77616e63652062656c6f77604482015264207a65726f60d81b6064820152608401610531565b6104ba8286868403610c32565b600033610495818585610dd0565b60006109d56005546001600160a01b031690565b6001600160a01b0316826001600160a01b0316148061049b5750506001600160a01b03166000908152600b602052604090205460ff1690565b83421115610a5e5760405162461bcd60e51b815260206004820152601d60248201527f45524332305065726d69743a206578706972656420646561646c696e650000006044820152606401610531565b60007f6e71edae12b1b97f4d1f60370fef10105fa2faae0126114a169c64845d6126c9888888610a8d8c6112d5565b6040805160208101969096526001600160a01b0394851690860152929091166060840152608083015260a082015260c0810186905260e0016040516020818303038152906040528051906020012090506000610ae8826112fd565b90506000610af88287878761132a565b9050896001600160a01b0316816001600160a01b031614610b5b5760405162461bcd60e51b815260206004820152601e60248201527f45524332305065726d69743a20696e76616c6964207369676e617475726500006044820152606401610531565b610b668a8a8a610c32565b50505050505050505050565b6000600a546b033b2e3c9fd0803ce800000061058d91906119ab565b6001600160a01b03918216600090815260016020908152604080832093909416825291909152205490565b610bc1610f74565b6001600160a01b038116610c265760405162461bcd60e51b815260206004820152602660248201527f4f776e61626c653a206e6577206f776e657220697320746865207a65726f206160448201526564647265737360d01b6064820152608401610531565b610c2f816111c3565b50565b6001600160a01b038316610c945760405162461bcd60e51b8152602060048201526024808201527f45524332303a20617070726f76652066726f6d20746865207a65726f206164646044820152637265737360e01b6064820152608401610531565b6001600160a01b038216610cf55760405162461bcd60e51b815260206004820152602260248201527f45524332303a20617070726f766520746f20746865207a65726f206164647265604482015261737360f01b6064820152608401610531565b6001600160a01b0383811660008181526001602090815260408083209487168084529482529182902085905590518481527f8c5be1e5ebec7d5bd14f71427d1e84f3dd0314c0f7b2291e5b200ac8c7c3b925910160405180910390a3505050565b6000610d628484610b8e565b90506000198114610dca5781811015610dbd5760405162461bcd60e51b815260206004820152601d60248201527f45524332303a20696e73756666696369656e7420616c6c6f77616e63650000006044820152606401610531565b610dca8484848403610c32565b50505050565b6001600160a01b038316610e345760405162461bcd60e51b815260206004820152602560248201527f45524332303a207472616e736665722066726f6d20746865207a65726f206164604482015264647265737360d81b6064820152608401610531565b6001600160a01b038216610e965760405162461bcd60e51b815260206004820152602360248201527f45524332303a207472616e7366657220746f20746865207a65726f206164647260448201526265737360e81b6064820152608401610531565b6001600160a01b03831660009081526020819052604090205481811015610f0e5760405162461bcd60e51b815260206004820152602660248201527f45524332303a207472616e7366657220616d6f756e7420657863656564732062604482015265616c616e636560d01b6064820152608401610531565b6001600160a01b03848116600081815260208181526040808320878703905593871680835291849020805487019055925185815290927fddf252ad1be2c89b69c2b068fc378daa952ba7f163c4a11628f55a4df523b3ef910160405180910390a3610dca565b6005546001600160a01b031633146107985760405162461bcd60e51b815260206004820181905260248201527f4f776e61626c653a2063616c6c6572206973206e6f7420746865206f776e65726044820152606401610531565b6000306001600160a01b037f00000000000000000000000000000000000000000000000000000000000000001614801561102757507f000000000000000000000000000000000000000000000000000000000000000046145b1561105157507f000000000000000000000000000000000000000000000000000000000000000090565b61058d604080517f8b73c3c69bb8fe3d512ecc4cf759cc79239f7b179b0ffacaa9a75d522b39400f60208201527f0000000000000000000000000000000000000000000000000000000000000000918101919091527f000000000000000000000000000000000000000000000000000000000000000060608201524660808201523060a082015260009060c00160405160208183030381529060405280519060200120905090565b6001600160a01b03821661114f5760405162461bcd60e51b815260206004820152601f60248201527f45524332303a206d696e7420746f20746865207a65726f2061646472657373006044820152606401610531565b80600260008282546111619190611998565b90915550506001600160a01b038216600081815260208181526040808320805486019055518481527fddf252ad1be2c89b69c2b068fc378daa952ba7f163c4a11628f55a4df523b3ef910160405180910390a35b5050565b610c2f3382611352565b600580546001600160a01b038381166001600160a01b0319831681179093556040519116919082907f8be0079c531659141344cd1fd0a4f28419497f9722a3daafe3b4186f6b6457e090600090a35050565b611220823383610d56565b6111b58282611352565b606060ff83146112445761123d83611484565b905061049b565b8180546112509061194e565b80601f016020809104026020016040519081016040528092919081815260200182805461127c9061194e565b80156112c95780601f1061129e576101008083540402835291602001916112c9565b820191906000526020600020905b8154815290600101906020018083116112ac57829003601f168201915b5050505050905061049b565b6001600160a01b03811660009081526008602052604090208054600181018255905b50919050565b600061049b61130a610fce565b8360405161190160f01b8152600281019290925260228201526042902090565b600080600061133b878787876114c3565b9150915061134881611587565b5095945050505050565b6001600160a01b0382166113b25760405162461bcd60e51b815260206004820152602160248201527f45524332303a206275726e2066726f6d20746865207a65726f206164647265736044820152607360f81b6064820152608401610531565b6001600160a01b038216600090815260208190526040902054818110156114265760405162461bcd60e51b815260206004820152602260248201527f45524332303a206275726e20616d6f756e7420657863656564732062616c616e604482015261636560f01b6064820152608401610531565b6001600160a01b0383166000818152602081815260408083208686039055600280548790039055518581529192917fddf252ad1be2c89b69c2b068fc378daa952ba7f163c4a11628f55a4df523b3ef910160405180910390a3505050565b60606000611491836116d1565b604080516020808252818301909252919250600091906020820181803683375050509182525060208101929092525090565b6000807f7fffffffffffffffffffffffffffffff5d576e7357a4501ddfe92f46681b20a08311156114fa575060009050600361157e565b6040805160008082526020820180845289905260ff881692820192909252606081018690526080810185905260019060a0016020604051602081039080840390855afa15801561154e573d6000803e3d6000fd5b5050604051601f1901519150506001600160a01b0381166115775760006001925092505061157e565b9150600090505b94509492505050565b600081600481111561159b5761159b6119be565b036115a35750565b60018160048111156115b7576115b76119be565b036116045760405162461bcd60e51b815260206004820152601860248201527f45434453413a20696e76616c6964207369676e617475726500000000000000006044820152606401610531565b6002816004811115611618576116186119be565b036116655760405162461bcd60e51b815260206004820152601f60248201527f45434453413a20696e76616c6964207369676e6174757265206c656e677468006044820152606401610531565b6003816004811115611679576116796119be565b03610c2f5760405162461bcd60e51b815260206004820152602260248201527f45434453413a20696e76616c6964207369676e6174757265202773272076616c604482015261756560f01b6064820152608401610531565b600060ff8216601f81111561049b57604051632cd44ac360e21b815260040160405180910390fd5b6000815180845260005b8181101561171f57602081850181015186830182015201611703565b506000602082860101526020601f19601f83011685010191505092915050565b60208152600061175260208301846116f9565b9392505050565b80356001600160a01b038116811461177057600080fd5b919050565b6000806040838503121561178857600080fd5b61179183611759565b946020939093013593505050565b6000806000606084860312156117b457600080fd5b6117bd84611759565b92506117cb60208501611759565b9150604084013590509250925092565b6000602082840312156117ed57600080fd5b61175282611759565b60006020828403121561180857600080fd5b5035919050565b60ff60f81b881681526000602060e0602084015261183060e084018a6116f9565b8381036040850152611842818a6116f9565b606085018990526001600160a01b038816608086015260a0850187905284810360c08601528551808252602080880193509091019060005b818110156118965783518352928401929184019160010161187a565b50909c9b505050505050505050505050565b600080600080600080600060e0888a0312156118c357600080fd5b6118cc88611759565b96506118da60208901611759565b95506040880135945060608801359350608088013560ff811681146118fe57600080fd5b9699959850939692959460a0840135945060c09093013592915050565b6000806040838503121561192e57600080fd5b61193783611759565b915061194560208401611759565b90509250929050565b600181811c9082168061196257607f821691505b6020821081036112f757634e487b7160e01b600052602260045260246000fd5b634e487b7160e01b600052601160045260246000fd5b8082018082111561049b5761049b611982565b8181038181111561049b5761049b611982565b634e487b7160e01b600052602160045260246000fdfea26469706673582212208cf130ae94e2eeb349c6545e9ee1384d4198f6c2dd4a98a06c035c89ecf35c8364736f6c63430008180033",
  "linkReferences": {},
  "deployedLinkReferences": {}
}