{
  "_format": "hh-sol-artifact-1",
  "contractName": "MiningPool",
  "sourceName": "contracts/MiningPool.sol",
  "abi": [
    {
      "inputs": [
        {
          "internalType": "address",
          "name": "_superToken",
          "type": "address"
        }
      ],
      "stateMutability": "nonpayable",
      "type": "constructor"
    },
    {
      "anonymous": false,
      "inputs": [
        {
          "indexed": false,
          "internalType": "uint256",
          "name": "newGlobalHashrate",
          "type": "uint256"
        }
      ],
      "name": "DifficultyAdjusted",
      "type": "event"
    },
    {
      "anonymous": false,
      "inputs": [
        {
          "indexed": true,
          "internalType": "address",
          "name": "miner",
          "type": "address"
        },
        {
          "indexed": false,
          "internalType": "uint256",
          "name": "oldHashrate",
          "type": "uint256"
        },
        {
          "indexed": false,
          "internalType": "uint256",
          "name": "newHashrate",
          "type": "uint256"
        }
      ],
      "name": "HashrateUpdated",
      "type": "event"
    },
    {
      "anonymous": false,
      "inputs": [
        {
          "indexed": true,
          "internalType": "address",
          "name": "miner",
          "type": "address"
        },
        {
          "indexed": false,
          "internalType": "string",
          "name": "reason",
          "type": "string"
        }
      ],
      "name": "MinerDeactivated",
      "type": "event"
    },
    {
      "anonymous": false,
      "inputs": [
        {
          "indexed": true,
          "internalType": "address",
          "name": "miner",
          "type": "address"
        },
        {
          "indexed": false,
          "internalType": "uint256",
          "name": "hashrate",
          "type": "uint256"
        }
      ],
      "name": "MinerRegistered",
      "type": "event"
    },
    {
      "anonymous": false,
      "inputs": [
        {
          "indexed": true,
          "internalType": "address",
          "name": "previousOwner",
          "type": "address"
        },
        {
          "indexed": true,
          "internalType": "address",
          "name": "newOwner",
          "type": "address"
        }
      ],
      "name": "OwnershipTransferred",
      "type": "event"
    },
    {
      "anonymous": false,
      "inputs": [
        {
          "indexed": true,
          "internalType": "address",
          "name": "miner",
          "type": "address"
        },
        {
          "indexed": false,
          "internalType": "uint256",
          "name": "amount",
          "type": "uint256"
        }
      ],
      "name": "RewardClaimed",
      "type": "event"
    },
    {
      "anonymous": false,
      "inputs": [
        {
          "indexed": false,
          "internalType": "uint256",
          "name": "newRewardPerHash",
          "type": "uint256"
        },
        {
          "indexed": false,
          "internalType": "uint256",
          "name": "newClaimCooldown",
          "type": "uint256"
        }
      ],
      "name": "RewardParametersUpdated",
      "type": "event"
    },
    {
      "anonymous": false,
      "inputs": [
        {
          "indexed": true,
          "internalType": "address",
          "name": "miner",
          "type": "address"
        },
        {
          "indexed": false,
          "internalType": "uint256",
          "name": "score",
          "type": "uint256"
        },
        {
          "indexed": false,
          "internalType": "string",
          "name": "reason",
          "type": "string"
        }
      ],
      "name": "SuspiciousActivityDetected",
      "type": "event"
    },
    {
      "inputs": [],
      "name": "DAILY_EMISSION",
      "outputs": [
        {
          "internalType": "uint256",
          "name": "",
          "type": "uint256"
        }
      ],
      "stateMutability": "view",
      "type": "function"
    },
    {
      "inputs": [],
      "name": "MAX_HASHRATE",
      "outputs": [
        {
          "internalType": "uint256",
          "name": "",
          "type": "uint256"
        }
      ],
      "stateMutability": "view",
      "type": "function"
    },
    {
      "inputs": [],
      "name": "MIN_HASHRATE",
      "outputs": [
        {
          "internalType": "uint256",
          "name": "",
          "type": "uint256"
        }
      ],
      "stateMutability": "view",
      "type": "function"
    },
    {
      "inputs": [],
      "name": "adjustDifficulty",
      "outputs": [],
      "stateMutability": "nonpayable",
      "type": "function"
    },
    {
      "inputs": [
        {
          "internalType": "address",
          "name": "_miner",
          "type": "address"
        }
      ],
      "name": "calculatePendingReward",
      "outputs": [
        {
          "internalType": "uint256",
          "name": "",
          "type": "uint256"
        }
      ],
      "stateMutability": "view",
      "type": "function"
    },
    {
      "inputs": [],
      "name": "claimCooldown",
      "outputs": [
        {
          "internalType": "uint256",
          "name": "",
          "type": "uint256"
        }
      ],
      "stateMutability": "view",
      "type": "function"
    },
    {
      "inputs": [],
      "name": "claimReward",
      "outputs": [],
      "stateMutability": "nonpayable",
      "type": "function"
    },
    {
      "inputs": [
        {
          "internalType": "address",
          "name": "_miner",
          "type": "address"
        },
        {
          "internalType": "string",
          "name": "_reason",
          "type": "string"
        }
      ],
      "name": "deactivateMiner",
      "outputs": [],
      "stateMutability": "nonpayable",
      "type": "function"
    },
    {
      "inputs": [],
      "name": "difficultyAdjustmentPeriod",
      "outputs": [
        {
          "internalType": "uint256",
          "name": "",
          "type": "uint256"
        }
      ],
      "stateMutability": "view",
      "type": "function"
    },
    {
      "inputs": [],
      "name": "getGlobalStats",
      "outputs": [
        {
          "internalType": "uint256",
          "name": "totalEm",
          "type": "uint256"
        },
        {
          "internalType": "uint256",
          "name": "totalActive",
          "type": "uint256"
        },
        {
          "internalType": "uint256",
          "name": "minerCount",
          "type": "uint256"
        }
      ],
      "stateMutability": "view",
      "type": "function"
    },
    {
      "inputs": [
        {
          "internalType": "address",
          "name": "_miner",
          "type": "address"
        }
      ],
      "name": "getMinerInfo",
      "outputs": [
        {
          "internalType": "uint256",
          "name": "hashrate",
          "type": "uint256"
        },
        {
          "internalType": "uint256",
          "name": "pending",
          "type": "uint256"
        },
        {
          "internalType": "uint256",
          "name": "totalClaimed",
          "type": "uint256"
        },
        {
          "internalType": "bool",
          "name": "active",
          "type": "bool"
        },
        {
          "internalType": "uint256",
          "name": "suspiciousScore",
          "type": "uint256"
        }
      ],
      "stateMutability": "view",
      "type": "function"
    },
    {
      "inputs": [],
      "name": "globalHashrate",
      "outputs": [
        {
          "internalType": "uint256",
          "name": "",
          "type": "uint256"
        }
      ],
      "stateMutability": "view",
      "type": "function"
    },
    {
      "inputs": [],
      "name": "lastDifficultyAdjustment",
      "outputs": [
        {
          "internalType": "uint256",
          "name": "",
          "type": "uint256"
        }
      ],
      "stateMutability": "view",
      "type": "function"
    },
    {
      "inputs": [],
      "name": "lockupPeriod",
      "outputs": [
        {
          "internalType": "uint256",
          "name": "",
          "type": "uint256"
        }
      ],
      "stateMutability": "view",
      "type": "function"
    },
    {
      "inputs": [
        {
          "internalType": "address",
          "name": "",
          "type": "address"
        }
      ],
      "name": "miners",
      "outputs": [
        {
          "internalType": "uint256",
          "name": "hashrate",
          "type": "uint256"
        },
        {
          "internalType": "uint256",
          "name": "lastClaimed",
          "type": "uint256"
        },
        {
          "internalType": "uint256",
          "name": "pendingReward",
          "type": "uint256"
        },
        {
          "internalType": "uint256",
          "name": "totalClaimed",
          "type": "uint256"
        },
        {
          "internalType": "uint256",
          "name": "registeredTime",
          "type": "uint256"
        },
        {
          "internalType": "bool",
          "name": "active",
          "type": "bool"
        },
        {
          "internalType": "uint256",
          "name": "suspiciousScore",
          "type": "uint256"
        }
      ],
      "stateMutability": "view",
      "type": "function"
    },
    {
      "inputs": [],
      "name": "owner",
      "outputs": [
        {
          "internalType": "address",
          "name": "",
          "type": "address"
        }
      ],
      "stateMutability": "view",
      "type": "function"
    },
    {
      "inputs": [
        {
          "internalType": "uint256",
          "name": "_hashrate",
          "type": "uint256"
        },
        {
          "internalType": "string",
          "name": "_deviceId",
          "type": "string"
        }
      ],
      "name": "registerMiner",
      "outputs": [],
      "stateMutability": "nonpayable",
      "type": "function"
    },
    {
      "inputs": [
        {
          "internalType": "address",
          "name": "",
          "type": "address"
        }
      ],
      "name": "registeredMiners",
      "outputs": [
        {
          "internalType": "bool",
          "name": "",
          "type": "bool"
        }
      ],
      "stateMutability": "view",
      "type": "function"
    },
    {
      "inputs": [],
      "name": "renounceOwnership",
      "outputs": [],
      "stateMutability": "nonpayable",
      "type": "function"
    },
    {
      "inputs": [],
      "name": "rewardPerHashPerDay",
      "outputs": [
        {
          "internalType": "uint256",
          "name": "",
          "type": "uint256"
        }
      ],
      "stateMutability": "view",
      "type": "function"
    },
    {
      "inputs": [],
      "name": "superToken",
      "outputs": [
        {
          "internalType": "contract IERC20",
          "name": "",
          "type": "address"
        }
      ],
      "stateMutability": "view",
      "type": "function"
    },
    {
      "inputs": [],
      "name": "totalActiveHashrate",
      "outputs": [
        {
          "internalType": "uint256",
          "name": "",
          "type": "uint256"
        }
      ],
      "stateMutability": "view",
      "type": "function"
    },
    {
      "inputs": [],
      "name": "totalEmitted",
      "outputs": [
        {
          "internalType": "uint256",
          "name": "",
          "type": "uint256"
        }
      ],
      "stateMutability": "view",
      "type": "function"
    },
    {
      "inputs": [],
      "name": "totalMiners",
      "outputs": [
        {
          "internalType": "uint256",
          "name": "",
          "type": "uint256"
        }
      ],
      "stateMutability": "view",
      "type": "function"
    },
    {
      "inputs": [
        {
          "internalType": "address",
          "name": "newOwner",
          "type": "address"
        }
      ],
      "name": "transferOwnership",
      "outputs": [],
      "stateMutability": "nonpayable",
      "type": "function"
    },
    {
      "inputs": [
        {
          "internalType": "uint256",
          "name": "_newHashrate",
          "type": "uint256"
        }
      ],
      "name": "updateHashrate",
      "outputs": [],
      "stateMutability": "nonpayable",
      "type": "function"
    },
    {
      "inputs": [
        {
          "internalType": "uint256",
          "name": "_rewardPerHash",
          "type": "uint256"
        },
        {
          "internalType": "uint256",
          "name": "_claimCooldown",
          "type": "uint256"
        }
      ],
      "name": "updateRewardParameters",
      "outputs": [],
      "stateMutability": "nonpayable",
      "type": "function"
    }
  ],
  "bytecode": "0x608060405264e8d4a510006003556201518060045562093a8060055562093a8060085534801561002e57600080fd5b506040516113e33803806113e383398101604081905261004d9161012d565b610056336100dd565b600180556001600160a01b0381166100b45760405162461bcd60e51b815260206004820152601b60248201527f496e76616c696420535550455220746f6b656e20616464726573730000000000604482015260640160405180910390fd5b600280546001600160a01b0319166001600160a01b03929092169190911790554260075561015d565b600080546001600160a01b038381166001600160a01b0319831681178455604051919092169283917f8be0079c531659141344cd1fd0a4f28419497f9722a3daafe3b4186f6b6457e09190a35050565b60006020828403121561013f57600080fd5b81516001600160a01b038116811461015657600080fd5b9392505050565b6112778061016c6000396000f3fe608060405234801561001057600080fd5b50600436106101a95760003560e01c80638da5cb5b116100f9578063e992cfc011610097578063f2fde38b11610071578063f2fde38b146103d6578063f49100aa146103e9578063fb27faf1146103fc578063fdea36571461040e57600080fd5b8063e992cfc0146103bb578063ee947a7c146103c4578063f01551f6146103cd57600080fd5b8063b88a802f116100d3578063b88a802f14610384578063c9e733931461038c578063df0244b11461039f578063e7d21287146103a857600080fd5b80638da5cb5b146103385780638f3c762b146103495780638f928b3d1461037c57600080fd5b8063648ec7b9116101665780636c9ecd64116101405780636c9ecd641461030b578063715018a61461031e578063764fe7d11461032657806387b09bed1461032f57600080fd5b8063648ec7b91461024d578063652e27cc146102d25780636b4169c3146102e757600080fd5b806306e1f11e146101ae5780630b34d553146101cb578063281e9fd7146102085780632b4116f71461021057806344eda33f1461023b57806352ddb90614610244575b600080fd5b6101b86298968081565b6040519081526020015b60405180910390f35b6101de6101d9366004611002565b610417565b6040805195865260208601949094529284019190915215156060830152608082015260a0016101c2565b6101b8606481565b600254610223906001600160a01b031681565b6040516001600160a01b0390911681526020016101c2565b6101b860065481565b6101b860075481565b61029b61025b366004611002565b60096020526000908152604090208054600182015460028301546003840154600485015460058601546006909601549495939492939192909160ff169087565b6040805197885260208801969096529486019390935260608501919091526080840152151560a083015260c082015260e0016101c2565b6102e56102e0366004611024565b6104a8565b005b600d54600c54600b54604080519384526020840192909252908201526060016101c2565b6102e561031936600461103d565b61069d565b6102e56106ec565b6101b8600b5481565b6101b860035481565b6000546001600160a01b0316610223565b61036c610357366004611002565b600a6020526000908152604090205460ff1681565b60405190151581526020016101c2565b6102e5610700565b6102e561079e565b6102e561039a3660046110a8565b610a54565b6101b8600d5481565b6101b86103b6366004611002565b610c39565b6101b8600c5481565b6101b860055481565b6101b860085481565b6102e56103e4366004611002565b610d55565b6102e56103f73660046110f4565b610dce565b6101b86a025aec36c1fb51fe18000081565b6101b860045481565b6001600160a01b0381166000908152600a6020526040812054819081908190819060ff166104605760405162461bcd60e51b81526004016104579061112e565b60405180910390fd5b6001600160a01b0386166000908152600960205260409020805461048388610c39565b60038301546005840154600690940154929a919950975060ff90921695509350915050565b336000908152600a602052604090205460ff166104d75760405162461bcd60e51b81526004016104579061112e565b606481101580156104eb5750629896808111155b61052a5760405162461bcd60e51b815260206004820152601060248201526f496e76616c696420686173687261746560801b6044820152606401610457565b336000908152600960205260409020600581015460ff166105805760405162461bcd60e51b815260206004820152601060248201526f4d696e6572206e6f742061637469766560801b6044820152606401610457565b805461058d906002611172565b821180156105ac5750428160010154620151806105aa919061118f565b105b1561063a57600a8160060160008282546105c6919061118f565b9091555050600681015460408051918252602082018190526018908201527f53756464656e20686173687261746520696e6372656173650000000000000000606082015233907f6f09c4c797c15b3e86a200ba4298b41853578d9fcd389b74c5f7c09e978108489060800160405180910390a25b8054600c54839061064c9083906111a2565b610656919061118f565b600c55828255604080518281526020810185905233917f316a87f62fedb99538f47168259456588590ebbc2ecec4131d0c195786c0fbc891015b60405180910390a2505050565b6106a5610ee3565b6003829055600481905560408051838152602081018390527ff3a6ee10a78fb7d212e87d9be970fb16bd7324e9dc9c38d21cd7ecde781a1d2a910160405180910390a15050565b6106f4610ee3565b6106fe6000610f3d565b565b610708610ee3565b600854600754610718919061118f565b42101561075d5760405162461bcd60e51b8152602060048201526013602482015272151bdbc819585c9b1e481d1bc818591a9d5cdd606a1b6044820152606401610457565b600c546006819055426007556040519081527f42ebc15644fe1ca39e719c989e249095a01e7bf6c4e2ea33889a7e33a7664caa9060200160405180910390a1565b6107a6610f8d565b336000908152600a602052604090205460ff166107d55760405162461bcd60e51b81526004016104579061112e565b336000908152600960205260409020600581015460ff1661082b5760405162461bcd60e51b815260206004820152601060248201526f4d696e6572206e6f742061637469766560801b6044820152606401610457565b600081600101544261083d91906111a2565b905060045481101561088a5760405162461bcd60e51b815260206004820152601660248201527510db185a5b4818dbdbdb191bdddb881b9bdd081b595d60521b6044820152606401610457565b600061089533610c39565b9050600081116108dc5760405162461bcd60e51b81526020600482015260126024820152714e6f2072657761726420746f20636c61696d60701b6044820152606401610457565b62093a80821180156108f957506108f56064600a611172565b8354115b15610919576005836006016000828254610913919061118f565b90915550505b60006002840181905542600185015560038401805483929061093c90849061118f565b9250508190555080600d6000828254610955919061118f565b909155505060025460405163a9059cbb60e01b8152336004820152602481018390526001600160a01b039091169063a9059cbb906044016020604051808303816000875af11580156109ab573d6000803e3d6000fd5b505050506040513d601f19601f820116820180604052508101906109cf91906111b5565b610a135760405162461bcd60e51b8152602060048201526015602482015274151bdad95b881d1c985b9cd9995c8819985a5b1959605a1b6044820152606401610457565b60405181815233907f106f923f993c2149d49b4255ff723acafa1f2d94393f561d3eda32ae348f72419060200160405180910390a25050506106fe60018055565b60648310158015610a685750629896808311155b610aa75760405162461bcd60e51b815260206004820152601060248201526f496e76616c696420686173687261746560801b6044820152606401610457565b336000908152600a602052604090205460ff1615610b075760405162461bcd60e51b815260206004820152601860248201527f4d696e657220616c7265616479207265676973746572656400000000000000006044820152606401610457565b80610b495760405162461bcd60e51b815260206004820152601260248201527111195d9a58d9481251081c995c5d5a5c995960721b6044820152606401610457565b6040805160e08101825284815242602080830182815260008486018181526060860182815260808701958652600160a0880181815260c08901858152338652600988528a862099518a559551898301559251600289015590516003880155945160048701555160058601805491151560ff199283161790559151600690950194909455600a909152928220805490931617909155600b805491610beb836111d7565b919050555082600c6000828254610c02919061118f565b909155505060405183815233907f9f75af45683a8dc8c992aadb62ddd8b1f460ec386a36b794110630db3d138cce90602001610690565b6001600160a01b0381166000908152600a602052604081205460ff16610c715760405162461bcd60e51b81526004016104579061112e565b6001600160a01b0382166000908152600960205260409020600581015460ff161580610c9c57508054155b15610cab576002015492915050565b6005548160040154610cbd919061118f565b421015610cce576002015492915050565b6000816001015442610ce091906111a2565b600c549091506a025aec36c1fb51fe1800009060009015610d0357600c54610d06565b60015b8454610d129084611172565b610d1c91906111f0565b9050600062015180610d2e8584611172565b610d3891906111f0565b9050808560020154610d4a919061118f565b979650505050505050565b610d5d610ee3565b6001600160a01b038116610dc25760405162461bcd60e51b815260206004820152602660248201527f4f776e61626c653a206e6577206f776e657220697320746865207a65726f206160448201526564647265737360d01b6064820152608401610457565b610dcb81610f3d565b50565b610dd6610ee3565b6001600160a01b0383166000908152600a602052604090205460ff16610e0e5760405162461bcd60e51b81526004016104579061112e565b6001600160a01b0383166000908152600960205260409020600581015460ff16610e735760405162461bcd60e51b81526020600482015260166024820152754d696e657220616c726561647920696e61637469766560501b6044820152606401610457565b60058101805460ff191690558054600c8054600090610e939084906111a2565b92505081905550836001600160a01b03167f1dbc7add33e0269629606381f602bf4330a50c1ff021f1297ffd64b7558d5b0e8484604051610ed5929190611212565b60405180910390a250505050565b6000546001600160a01b031633146106fe5760405162461bcd60e51b815260206004820181905260248201527f4f776e61626c653a2063616c6c6572206973206e6f7420746865206f776e65726044820152606401610457565b600080546001600160a01b038381166001600160a01b0319831681178455604051919092169283917f8be0079c531659141344cd1fd0a4f28419497f9722a3daafe3b4186f6b6457e09190a35050565b600260015403610fdf5760405162461bcd60e51b815260206004820152601f60248201527f5265656e7472616e637947756172643a207265656e7472616e742063616c6c006044820152606401610457565b6002600155565b80356001600160a01b0381168114610ffd57600080fd5b919050565b60006020828403121561101457600080fd5b61101d82610fe6565b9392505050565b60006020828403121561103657600080fd5b5035919050565b6000806040838503121561105057600080fd5b50508035926020909101359150565b60008083601f84011261107157600080fd5b50813567ffffffffffffffff81111561108957600080fd5b6020830191508360208285010111156110a157600080fd5b9250929050565b6000806000604084860312156110bd57600080fd5b83359250602084013567ffffffffffffffff8111156110db57600080fd5b6110e78682870161105f565b9497909650939450505050565b60008060006040848603121561110957600080fd5b61111284610fe6565b9250602084013567ffffffffffffffff8111156110db57600080fd5b602080825260149082015273135a5b995c881b9bdd081c9959da5cdd195c995960621b604082015260600190565b634e487b7160e01b600052601160045260246000fd5b80820281158282048414176111895761118961115c565b92915050565b808201808211156111895761118961115c565b818103818111156111895761118961115c565b6000602082840312156111c757600080fd5b8151801515811461101d57600080fd5b6000600182016111e9576111e961115c565b5060010190565b60008261120d57634e487b7160e01b600052601260045260246000fd5b500490565b60208152816020820152818360408301376000818301604090810191909152601f909201601f1916010191905056fea264697066735822122013433f4d3892a87d80a2d30b2100559535ede702dea5f6cff67f93c4ee94b5d864736f6c63430008180033",
  "linkReferences": {},
  "deployedLinkReferences": {}
}