{"contracts/MiningPool.sol":{"MiningPool":{"abi":[{"inputs":[{"internalType":"address","name":"_superToken","type":"address"}],"stateMutability":"nonpayable","type":"constructor"},{"anonymous":false,"inputs":[{"indexed":false,"internalType":"uint256","name":"newGlobalHashrate","type":"uint256"}],"name":"DifficultyAdjusted","type":"event"},{"anonymous":false,"inputs":[{"indexed":true,"internalType":"address","name":"miner","type":"address"},{"indexed":false,"internalType":"uint256","name":"oldHashrate","type":"uint256"},{"indexed":false,"internalType":"uint256","name":"newHashrate","type":"uint256"}],"name":"HashrateUpdated","type":"event"},{"anonymous":false,"inputs":[{"indexed":true,"internalType":"address","name":"miner","type":"address"},{"indexed":false,"internalType":"string","name":"reason","type":"string"}],"name":"MinerDeactivated","type":"event"},{"anonymous":false,"inputs":[{"indexed":true,"internalType":"address","name":"miner","type":"address"},{"indexed":false,"internalType":"uint256","name":"hashrate","type":"uint256"}],"name":"MinerRegistered","type":"event"},{"anonymous":false,"inputs":[{"indexed":true,"internalType":"address","name":"previousOwner","type":"address"},{"indexed":true,"internalType":"address","name":"newOwner","type":"address"}],"name":"OwnershipTransferred","type":"event"},{"anonymous":false,"inputs":[{"indexed":true,"internalType":"address","name":"miner","type":"address"},{"indexed":false,"internalType":"uint256","name":"amount","type":"uint256"}],"name":"RewardClaimed","type":"event"},{"anonymous":false,"inputs":[{"indexed":false,"internalType":"uint256","name":"newRewardPerHash","type":"uint256"},{"indexed":false,"internalType":"uint256","name":"newClaimCooldown","type":"uint256"}],"name":"RewardParametersUpdated","type":"event"},{"anonymous":false,"inputs":[{"indexed":true,"internalType":"address","name":"miner","type":"address"},{"indexed":false,"internalType":"uint256","name":"score","type":"uint256"},{"indexed":false,"internalType":"string","name":"reason","type":"string"}],"name":"SuspiciousActivityDetected","type":"event"},{"inputs":[],"name":"DAILY_EMISSION","outputs":[{"internalType":"uint256","name":"","type":"uint256"}],"stateMutability":"view","type":"function"},{"inputs":[],"name":"MAX_HASHRATE","outputs":[{"internalType":"uint256","name":"","type":"uint256"}],"stateMutability":"view","type":"function"},{"inputs":[],"name":"MIN_HASHRATE","outputs":[{"internalType":"uint256","name":"","type":"uint256"}],"stateMutability":"view","type":"function"},{"inputs":[],"name":"adjustDifficulty","outputs":[],"stateMutability":"nonpayable","type":"function"},{"inputs":[{"internalType":"address","name":"_miner","type":"address"}],"name":"calculatePendingReward","outputs":[{"internalType":"uint256","name":"","type":"uint256"}],"stateMutability":"view","type":"function"},{"inputs":[],"name":"claimCooldown","outputs":[{"internalType":"uint256","name":"","type":"uint256"}],"stateMutability":"view","type":"function"},{"inputs":[],"name":"claimReward","outputs":[],"stateMutability":"nonpayable","type":"function"},{"inputs":[{"internalType":"address","name":"_miner","type":"address"},{"internalType":"string","name":"_reason","type":"string"}],"name":"deactivateMiner","outputs":[],"stateMutability":"nonpayable","type":"function"},{"inputs":[],"name":"difficultyAdjustmentPeriod","outputs":[{"internalType":"uint256","name":"","type":"uint256"}],"stateMutability":"view","type":"function"},{"inputs":[],"name":"getGlobalStats","outputs":[{"internalType":"uint256","name":"totalEm","type":"uint256"},{"internalType":"uint256","name":"totalActive","type":"uint256"},{"internalType":"uint256","name":"minerCount","type":"uint256"}],"stateMutability":"view","type":"function"},{"inputs":[{"internalType":"address","name":"_miner","type":"address"}],"name":"getMinerInfo","outputs":[{"internalType":"uint256","name":"hashrate","type":"uint256"},{"internalType":"uint256","name":"pending","type":"uint256"},{"internalType":"uint256","name":"totalClaimed","type":"uint256"},{"internalType":"bool","name":"active","type":"bool"},{"internalType":"uint256","name":"suspiciousScore","type":"uint256"}],"stateMutability":"view","type":"function"},{"inputs":[],"name":"globalHashrate","outputs":[{"internalType":"uint256","name":"","type":"uint256"}],"stateMutability":"view","type":"function"},{"inputs":[],"name":"lastDifficultyAdjustment","outputs":[{"internalType":"uint256","name":"","type":"uint256"}],"stateMutability":"view","type":"function"},{"inputs":[],"name":"lockupPeriod","outputs":[{"internalType":"uint256","name":"","type":"uint256"}],"stateMutability":"view","type":"function"},{"inputs":[{"internalType":"address","name":"","type":"address"}],"name":"miners","outputs":[{"internalType":"uint256","name":"hashrate","type":"uint256"},{"internalType":"uint256","name":"lastClaimed","type":"uint256"},{"internalType":"uint256","name":"pendingReward","type":"uint256"},{"internalType":"uint256","name":"totalClaimed","type":"uint256"},{"internalType":"uint256","name":"registeredTime","type":"uint256"},{"internalType":"bool","name":"active","type":"bool"},{"internalType":"uint256","name":"suspiciousScore","type":"uint256"}],"stateMutability":"view","type":"function"},{"inputs":[],"name":"owner","outputs":[{"internalType":"address","name":"","type":"address"}],"stateMutability":"view","type":"function"},{"inputs":[{"internalType":"uint256","name":"_hashrate","type":"uint256"},{"internalType":"string","name":"_deviceId","type":"string"}],"name":"registerMiner","outputs":[],"stateMutability":"nonpayable","type":"function"},{"inputs":[{"internalType":"address","name":"","type":"address"}],"name":"registeredMiners","outputs":[{"internalType":"bool","name":"","type":"bool"}],"stateMutability":"view","type":"function"},{"inputs":[],"name":"renounceOwnership","outputs":[],"stateMutability":"nonpayable","type":"function"},{"inputs":[],"name":"rewardPerHashPerDay","outputs":[{"internalType":"uint256","name":"","type":"uint256"}],"stateMutability":"view","type":"function"},{"inputs":[],"name":"superToken","outputs":[{"internalType":"contract IERC20","name":"","type":"address"}],"stateMutability":"view","type":"function"},{"inputs":[],"name":"totalActiveHashrate","outputs":[{"internalType":"uint256","name":"","type":"uint256"}],"stateMutability":"view","type":"function"},{"inputs":[],"name":"totalEmitted","outputs":[{"internalType":"uint256","name":"","type":"uint256"}],"stateMutability":"view","type":"function"},{"inputs":[],"name":"totalMiners","outputs":[{"internalType":"uint256","name":"","type":"uint256"}],"stateMutability":"view","type":"function"},{"inputs":[{"internalType":"address","name":"newOwner","type":"address"}],"name":"transferOwnership","outputs":[],"stateMutability":"nonpayable","type":"function"},{"inputs":[{"internalType":"uint256","name":"_newHashrate","type":"uint256"}],"name":"updateHashrate","outputs":[],"stateMutability":"nonpayable","type":"function"},{"inputs":[{"internalType":"uint256","name":"_rewardPerHash","type":"uint256"},{"internalType":"uint256","name":"_claimCooldown","type":"uint256"}],"name":"updateRewardParameters","outputs":[],"stateMutability":"nonpayable","type":"function"}],"evm":{"bytecode":{"linkReferences":{},"object":"608060405264e8d4a510006003556201518060045562093a8060055562093a8060085534801561002e57600080fd5b506040516113e33803806113e383398101604081905261004d9161012d565b610056336100dd565b600180556001600160a01b0381166100b45760405162461bcd60e51b815260206004820152601b60248201527f496e76616c696420535550455220746f6b656e20616464726573730000000000604482015260640160405180910390fd5b600280546001600160a01b0319166001600160a01b03929092169190911790554260075561015d565b600080546001600160a01b038381166001600160a01b0319831681178455604051919092169283917f8be0079c531659141344cd1fd0a4f28419497f9722a3daafe3b4186f6b6457e09190a35050565b60006020828403121561013f57600080fd5b81516001600160a01b038116811461015657600080fd5b9392505050565b6112778061016c6000396000f3fe608060405234801561001057600080fd5b50600436106101a95760003560e01c80638da5cb5b116100f9578063e992cfc011610097578063f2fde38b11610071578063f2fde38b146103d6578063f49100aa146103e9578063fb27faf1146103fc578063fdea36571461040e57600080fd5b8063e992cfc0146103bb578063ee947a7c146103c4578063f01551f6146103cd57600080fd5b8063b88a802f116100d3578063b88a802f14610384578063c9e733931461038c578063df0244b11461039f578063e7d21287146103a857600080fd5b80638da5cb5b146103385780638f3c762b146103495780638f928b3d1461037c57600080fd5b8063648ec7b9116101665780636c9ecd64116101405780636c9ecd641461030b578063715018a61461031e578063764fe7d11461032657806387b09bed1461032f57600080fd5b8063648ec7b91461024d578063652e27cc146102d25780636b4169c3146102e757600080fd5b806306e1f11e146101ae5780630b34d553146101cb578063281e9fd7146102085780632b4116f71461021057806344eda33f1461023b57806352ddb90614610244575b600080fd5b6101b86298968081565b6040519081526020015b60405180910390f35b6101de6101d9366004611002565b610417565b6040805195865260208601949094529284019190915215156060830152608082015260a0016101c2565b6101b8606481565b600254610223906001600160a01b031681565b6040516001600160a01b0390911681526020016101c2565b6101b860065481565b6101b860075481565b61029b61025b366004611002565b60096020526000908152604090208054600182015460028301546003840154600485015460058601546006909601549495939492939192909160ff169087565b6040805197885260208801969096529486019390935260608501919091526080840152151560a083015260c082015260e0016101c2565b6102e56102e0366004611024565b6104a8565b005b600d54600c54600b54604080519384526020840192909252908201526060016101c2565b6102e561031936600461103d565b61069d565b6102e56106ec565b6101b8600b5481565b6101b860035481565b6000546001600160a01b0316610223565b61036c610357366004611002565b600a6020526000908152604090205460ff1681565b60405190151581526020016101c2565b6102e5610700565b6102e561079e565b6102e561039a3660046110a8565b610a54565b6101b8600d5481565b6101b86103b6366004611002565b610c39565b6101b8600c5481565b6101b860055481565b6101b860085481565b6102e56103e4366004611002565b610d55565b6102e56103f73660046110f4565b610dce565b6101b86a025aec36c1fb51fe18000081565b6101b860045481565b6001600160a01b0381166000908152600a6020526040812054819081908190819060ff166104605760405162461bcd60e51b81526004016104579061112e565b60405180910390fd5b6001600160a01b0386166000908152600960205260409020805461048388610c39565b60038301546005840154600690940154929a919950975060ff90921695509350915050565b336000908152600a602052604090205460ff166104d75760405162461bcd60e51b81526004016104579061112e565b606481101580156104eb5750629896808111155b61052a5760405162461bcd60e51b815260206004820152601060248201526f496e76616c696420686173687261746560801b6044820152606401610457565b336000908152600960205260409020600581015460ff166105805760405162461bcd60e51b815260206004820152601060248201526f4d696e6572206e6f742061637469766560801b6044820152606401610457565b805461058d906002611172565b821180156105ac5750428160010154620151806105aa919061118f565b105b1561063a57600a8160060160008282546105c6919061118f565b9091555050600681015460408051918252602082018190526018908201527f53756464656e20686173687261746520696e6372656173650000000000000000606082015233907f6f09c4c797c15b3e86a200ba4298b41853578d9fcd389b74c5f7c09e978108489060800160405180910390a25b8054600c54839061064c9083906111a2565b610656919061118f565b600c55828255604080518281526020810185905233917f316a87f62fedb99538f47168259456588590ebbc2ecec4131d0c195786c0fbc891015b60405180910390a2505050565b6106a5610ee3565b6003829055600481905560408051838152602081018390527ff3a6ee10a78fb7d212e87d9be970fb16bd7324e9dc9c38d21cd7ecde781a1d2a910160405180910390a15050565b6106f4610ee3565b6106fe6000610f3d565b565b610708610ee3565b600854600754610718919061118f565b42101561075d5760405162461bcd60e51b8152602060048201526013602482015272151bdbc819585c9b1e481d1bc818591a9d5cdd606a1b6044820152606401610457565b600c546006819055426007556040519081527f42ebc15644fe1ca39e719c989e249095a01e7bf6c4e2ea33889a7e33a7664caa9060200160405180910390a1565b6107a6610f8d565b336000908152600a602052604090205460ff166107d55760405162461bcd60e51b81526004016104579061112e565b336000908152600960205260409020600581015460ff1661082b5760405162461bcd60e51b815260206004820152601060248201526f4d696e6572206e6f742061637469766560801b6044820152606401610457565b600081600101544261083d91906111a2565b905060045481101561088a5760405162461bcd60e51b815260206004820152601660248201527510db185a5b4818dbdbdb191bdddb881b9bdd081b595d60521b6044820152606401610457565b600061089533610c39565b9050600081116108dc5760405162461bcd60e51b81526020600482015260126024820152714e6f2072657761726420746f20636c61696d60701b6044820152606401610457565b62093a80821180156108f957506108f56064600a611172565b8354115b15610919576005836006016000828254610913919061118f565b90915550505b60006002840181905542600185015560038401805483929061093c90849061118f565b9250508190555080600d6000828254610955919061118f565b909155505060025460405163a9059cbb60e01b8152336004820152602481018390526001600160a01b039091169063a9059cbb906044016020604051808303816000875af11580156109ab573d6000803e3d6000fd5b505050506040513d601f19601f820116820180604052508101906109cf91906111b5565b610a135760405162461bcd60e51b8152602060048201526015602482015274151bdad95b881d1c985b9cd9995c8819985a5b1959605a1b6044820152606401610457565b60405181815233907f106f923f993c2149d49b4255ff723acafa1f2d94393f561d3eda32ae348f72419060200160405180910390a25050506106fe60018055565b60648310158015610a685750629896808311155b610aa75760405162461bcd60e51b815260206004820152601060248201526f496e76616c696420686173687261746560801b6044820152606401610457565b336000908152600a602052604090205460ff1615610b075760405162461bcd60e51b815260206004820152601860248201527f4d696e657220616c7265616479207265676973746572656400000000000000006044820152606401610457565b80610b495760405162461bcd60e51b815260206004820152601260248201527111195d9a58d9481251081c995c5d5a5c995960721b6044820152606401610457565b6040805160e08101825284815242602080830182815260008486018181526060860182815260808701958652600160a0880181815260c08901858152338652600988528a862099518a559551898301559251600289015590516003880155945160048701555160058601805491151560ff199283161790559151600690950194909455600a909152928220805490931617909155600b805491610beb836111d7565b919050555082600c6000828254610c02919061118f565b909155505060405183815233907f9f75af45683a8dc8c992aadb62ddd8b1f460ec386a36b794110630db3d138cce90602001610690565b6001600160a01b0381166000908152600a602052604081205460ff16610c715760405162461bcd60e51b81526004016104579061112e565b6001600160a01b0382166000908152600960205260409020600581015460ff161580610c9c57508054155b15610cab576002015492915050565b6005548160040154610cbd919061118f565b421015610cce576002015492915050565b6000816001015442610ce091906111a2565b600c549091506a025aec36c1fb51fe1800009060009015610d0357600c54610d06565b60015b8454610d129084611172565b610d1c91906111f0565b9050600062015180610d2e8584611172565b610d3891906111f0565b9050808560020154610d4a919061118f565b979650505050505050565b610d5d610ee3565b6001600160a01b038116610dc25760405162461bcd60e51b815260206004820152602660248201527f4f776e61626c653a206e6577206f776e657220697320746865207a65726f206160448201526564647265737360d01b6064820152608401610457565b610dcb81610f3d565b50565b610dd6610ee3565b6001600160a01b0383166000908152600a602052604090205460ff16610e0e5760405162461bcd60e51b81526004016104579061112e565b6001600160a01b0383166000908152600960205260409020600581015460ff16610e735760405162461bcd60e51b81526020600482015260166024820152754d696e657220616c726561647920696e61637469766560501b6044820152606401610457565b60058101805460ff191690558054600c8054600090610e939084906111a2565b92505081905550836001600160a01b03167f1dbc7add33e0269629606381f602bf4330a50c1ff021f1297ffd64b7558d5b0e8484604051610ed5929190611212565b60405180910390a250505050565b6000546001600160a01b031633146106fe5760405162461bcd60e51b815260206004820181905260248201527f4f776e61626c653a2063616c6c6572206973206e6f7420746865206f776e65726044820152606401610457565b600080546001600160a01b038381166001600160a01b0319831681178455604051919092169283917f8be0079c531659141344cd1fd0a4f28419497f9722a3daafe3b4186f6b6457e09190a35050565b600260015403610fdf5760405162461bcd60e51b815260206004820152601f60248201527f5265656e7472616e637947756172643a207265656e7472616e742063616c6c006044820152606401610457565b6002600155565b80356001600160a01b0381168114610ffd57600080fd5b919050565b60006020828403121561101457600080fd5b61101d82610fe6565b9392505050565b60006020828403121561103657600080fd5b5035919050565b6000806040838503121561105057600080fd5b50508035926020909101359150565b60008083601f84011261107157600080fd5b50813567ffffffffffffffff81111561108957600080fd5b6020830191508360208285010111156110a157600080fd5b9250929050565b6000806000604084860312156110bd57600080fd5b83359250602084013567ffffffffffffffff8111156110db57600080fd5b6110e78682870161105f565b9497909650939450505050565b60008060006040848603121561110957600080fd5b61111284610fe6565b9250602084013567ffffffffffffffff8111156110db57600080fd5b602080825260149082015273135a5b995c881b9bdd081c9959da5cdd195c995960621b604082015260600190565b634e487b7160e01b600052601160045260246000fd5b80820281158282048414176111895761118961115c565b92915050565b808201808211156111895761118961115c565b818103818111156111895761118961115c565b6000602082840312156111c757600080fd5b8151801515811461101d57600080fd5b6000600182016111e9576111e961115c565b5060010190565b60008261120d57634e487b7160e01b600052601260045260246000fd5b500490565b60208152816020820152818360408301376000818301604090810191909152601f909201601f1916010191905056fea264697066735822122013433f4d3892a87d80a2d30b2100559535ede702dea5f6cff67f93c4ee94b5d864736f6c63430008180033","opcodes":"PUSH1 0x80 PUSH1 0x40 MSTORE PUSH5 0xE8D4A51000 PUSH1 0x3 SSTORE PUSH3 0x15180 PUSH1 0x4 SSTORE PUSH3 0x93A80 PUSH1 0x5 SSTORE PUSH3 0x93A80 PUSH1 0x8 SSTORE CALLVALUE DUP1 ISZERO PUSH2 0x2E JUMPI PUSH1 0x0 DUP1 REVERT JUMPDEST POP PUSH1 0x40 MLOAD PUSH2 0x13E3 CODESIZE SUB DUP1 PUSH2 0x13E3 DUP4 CODECOPY DUP2 ADD PUSH1 0x40 DUP2 SWAP1 MSTORE PUSH2 0x4D SWAP2 PUSH2 0x12D JUMP JUMPDEST PUSH2 0x56 CALLER PUSH2 0xDD JUMP JUMPDEST PUSH1 0x1 DUP1 SSTORE PUSH1 0x1 PUSH1 0x1 PUSH1 0xA0 SHL SUB DUP2 AND PUSH2 0xB4 JUMPI PUSH1 0x40 MLOAD PUSH3 0x461BCD PUSH1 0xE5 SHL DUP2 MSTORE PUSH1 0x20 PUSH1 0x4 DUP3 ADD MSTORE PUSH1 0x1B PUSH1 0x24 DUP3 ADD MSTORE PUSH32 0x496E76616C696420535550455220746F6B656E20616464726573730000000000 PUSH1 0x44 DUP3 ADD MSTORE PUSH1 0x64 ADD PUSH1 0x40 MLOAD DUP1 SWAP2 SUB SWAP1 REVERT JUMPDEST PUSH1 0x2 DUP1 SLOAD PUSH1 0x1 PUSH1 0x1 PUSH1 0xA0 SHL SUB NOT AND PUSH1 0x1 PUSH1 0x1 PUSH1 0xA0 SHL SUB SWAP3 SWAP1 SWAP3 AND SWAP2 SWAP1 SWAP2 OR SWAP1 SSTORE TIMESTAMP PUSH1 0x7 SSTORE PUSH2 0x15D JUMP JUMPDEST PUSH1 0x0 DUP1 SLOAD PUSH1 0x1 PUSH1 0x1 PUSH1 0xA0 SHL SUB DUP4 DUP2 AND PUSH1 0x1 PUSH1 0x1 PUSH1 0xA0 SHL SUB NOT DUP4 AND DUP2 OR DUP5 SSTORE PUSH1 0x40 MLOAD SWAP2 SWAP1 SWAP3 AND SWAP3 DUP4 SWAP2 PUSH32 0x8BE0079C531659141344CD1FD0A4F28419497F9722A3DAAFE3B4186F6B6457E0 SWAP2 SWAP1 LOG3 POP POP JUMP JUMPDEST PUSH1 0x0 PUSH1 0x20 DUP3 DUP5 SUB SLT ISZERO PUSH2 0x13F JUMPI PUSH1 0x0 DUP1 REVERT JUMPDEST DUP2 MLOAD PUSH1 0x1 PUSH1 0x1 PUSH1 0xA0 SHL SUB DUP2 AND DUP2 EQ PUSH2 0x156 JUMPI PUSH1 0x0 DUP1 REVERT JUMPDEST SWAP4 SWAP3 POP POP POP JUMP JUMPDEST PUSH2 0x1277 DUP1 PUSH2 0x16C PUSH1 0x0 CODECOPY PUSH1 0x0 RETURN INVALID PUSH1 0x80 PUSH1 0x40 MSTORE CALLVALUE DUP1 ISZERO PUSH2 0x10 JUMPI PUSH1 0x0 DUP1 REVERT JUMPDEST POP PUSH1 0x4 CALLDATASIZE LT PUSH2 0x1A9 JUMPI PUSH1 0x0 CALLDATALOAD PUSH1 0xE0 SHR DUP1 PUSH4 0x8DA5CB5B GT PUSH2 0xF9 JUMPI DUP1 PUSH4 0xE992CFC0 GT PUSH2 0x97 JUMPI DUP1 PUSH4 0xF2FDE38B GT PUSH2 0x71 JUMPI DUP1 PUSH4 0xF2FDE38B EQ PUSH2 0x3D6 JUMPI DUP1 PUSH4 0xF49100AA EQ PUSH2 0x3E9 JUMPI DUP1 PUSH4 0xFB27FAF1 EQ PUSH2 0x3FC JUMPI DUP1 PUSH4 0xFDEA3657 EQ PUSH2 0x40E JUMPI PUSH1 0x0 DUP1 REVERT JUMPDEST DUP1 PUSH4 0xE992CFC0 EQ PUSH2 0x3BB JUMPI DUP1 PUSH4 0xEE947A7C EQ PUSH2 0x3C4 JUMPI DUP1 PUSH4 0xF01551F6 EQ PUSH2 0x3CD JUMPI PUSH1 0x0 DUP1 REVERT JUMPDEST DUP1 PUSH4 0xB88A802F GT PUSH2 0xD3 JUMPI DUP1 PUSH4 0xB88A802F EQ PUSH2 0x384 JUMPI DUP1 PUSH4 0xC9E73393 EQ PUSH2 0x38C JUMPI DUP1 PUSH4 0xDF0244B1 EQ PUSH2 0x39F JUMPI DUP1 PUSH4 0xE7D21287 EQ PUSH2 0x3A8 JUMPI PUSH1 0x0 DUP1 REVERT JUMPDEST DUP1 PUSH4 0x8DA5CB5B EQ PUSH2 0x338 JUMPI DUP1 PUSH4 0x8F3C762B EQ PUSH2 0x349 JUMPI DUP1 PUSH4 0x8F928B3D EQ PUSH2 0x37C JUMPI PUSH1 0x0 DUP1 REVERT JUMPDEST DUP1 PUSH4 0x648EC7B9 GT PUSH2 0x166 JUMPI DUP1 PUSH4 0x6C9ECD64 GT PUSH2 0x140 JUMPI DUP1 PUSH4 0x6C9ECD64 EQ PUSH2 0x30B JUMPI DUP1 PUSH4 0x715018A6 EQ PUSH2 0x31E JUMPI DUP1 PUSH4 0x764FE7D1 EQ PUSH2 0x326 JUMPI DUP1 PUSH4 0x87B09BED EQ PUSH2 0x32F JUMPI PUSH1 0x0 DUP1 REVERT JUMPDEST DUP1 PUSH4 0x648EC7B9 EQ PUSH2 0x24D JUMPI DUP1 PUSH4 0x652E27CC EQ PUSH2 0x2D2 JUMPI DUP1 PUSH4 0x6B4169C3 EQ PUSH2 0x2E7 JUMPI PUSH1 0x0 DUP1 REVERT JUMPDEST DUP1 PUSH4 0x6E1F11E EQ PUSH2 0x1AE JUMPI DUP1 PUSH4 0xB34D553 EQ PUSH2 0x1CB JUMPI DUP1 PUSH4 0x281E9FD7 EQ PUSH2 0x208 JUMPI DUP1 PUSH4 0x2B4116F7 EQ PUSH2 0x210 JUMPI DUP1 PUSH4 0x44EDA33F EQ PUSH2 0x23B JUMPI DUP1 PUSH4 0x52DDB906 EQ PUSH2 0x244 JUMPI JUMPDEST PUSH1 0x0 DUP1 REVERT JUMPDEST PUSH2 0x1B8 PUSH3 0x989680 DUP2 JUMP JUMPDEST PUSH1 0x40 MLOAD SWAP1 DUP2 MSTORE PUSH1 0x20 ADD JUMPDEST PUSH1 0x40 MLOAD DUP1 SWAP2 SUB SWAP1 RETURN JUMPDEST PUSH2 0x1DE PUSH2 0x1D9 CALLDATASIZE PUSH1 0x4 PUSH2 0x1002 JUMP JUMPDEST PUSH2 0x417 JUMP JUMPDEST PUSH1 0x40 DUP1 MLOAD SWAP6 DUP7 MSTORE PUSH1 0x20 DUP7 ADD SWAP5 SWAP1 SWAP5 MSTORE SWAP3 DUP5 ADD SWAP2 SWAP1 SWAP2 MSTORE ISZERO ISZERO PUSH1 0x60 DUP4 ADD MSTORE PUSH1 0x80 DUP3 ADD MSTORE PUSH1 0xA0 ADD PUSH2 0x1C2 JUMP JUMPDEST PUSH2 0x1B8 PUSH1 0x64 DUP2 JUMP JUMPDEST PUSH1 0x2 SLOAD PUSH2 0x223 SWAP1 PUSH1 0x1 PUSH1 0x1 PUSH1 0xA0 SHL SUB AND DUP2 JUMP JUMPDEST PUSH1 0x40 MLOAD PUSH1 0x1 PUSH1 0x1 PUSH1 0xA0 SHL SUB SWAP1 SWAP2 AND DUP2 MSTORE PUSH1 0x20 ADD PUSH2 0x1C2 JUMP JUMPDEST PUSH2 0x1B8 PUSH1 0x6 SLOAD DUP2 JUMP JUMPDEST PUSH2 0x1B8 PUSH1 0x7 SLOAD DUP2 JUMP JUMPDEST PUSH2 0x29B PUSH2 0x25B CALLDATASIZE PUSH1 0x4 PUSH2 0x1002 JUMP JUMPDEST PUSH1 0x9 PUSH1 0x20 MSTORE PUSH1 0x0 SWAP1 DUP2 MSTORE PUSH1 0x40 SWAP1 KECCAK256 DUP1 SLOAD PUSH1 0x1 DUP3 ADD SLOAD PUSH1 0x2 DUP4 ADD SLOAD PUSH1 0x3 DUP5 ADD SLOAD PUSH1 0x4 DUP6 ADD SLOAD PUSH1 0x5 DUP7 ADD SLOAD PUSH1 0x6 SWAP1 SWAP7 ADD SLOAD SWAP5 SWAP6 SWAP4 SWAP5 SWAP3 SWAP4 SWAP2 SWAP3 SWAP1 SWAP2 PUSH1 0xFF AND SWAP1 DUP8 JUMP JUMPDEST PUSH1 0x40 DUP1 MLOAD SWAP8 DUP9 MSTORE PUSH1 0x20 DUP9 ADD SWAP7 SWAP1 SWAP7 MSTORE SWAP5 DUP7 ADD SWAP4 SWAP1 SWAP4 MSTORE PUSH1 0x60 DUP6 ADD SWAP2 SWAP1 SWAP2 MSTORE PUSH1 0x80 DUP5 ADD MSTORE ISZERO ISZERO PUSH1 0xA0 DUP4 ADD MSTORE PUSH1 0xC0 DUP3 ADD MSTORE PUSH1 0xE0 ADD PUSH2 0x1C2 JUMP JUMPDEST PUSH2 0x2E5 PUSH2 0x2E0 CALLDATASIZE PUSH1 0x4 PUSH2 0x1024 JUMP JUMPDEST PUSH2 0x4A8 JUMP JUMPDEST STOP JUMPDEST PUSH1 0xD SLOAD PUSH1 0xC SLOAD PUSH1 0xB SLOAD PUSH1 0x40 DUP1 MLOAD SWAP4 DUP5 MSTORE PUSH1 0x20 DUP5 ADD SWAP3 SWAP1 SWAP3 MSTORE SWAP1 DUP3 ADD MSTORE PUSH1 0x60 ADD PUSH2 0x1C2 JUMP JUMPDEST PUSH2 0x2E5 PUSH2 0x319 CALLDATASIZE PUSH1 0x4 PUSH2 0x103D JUMP JUMPDEST PUSH2 0x69D JUMP JUMPDEST PUSH2 0x2E5 PUSH2 0x6EC JUMP JUMPDEST PUSH2 0x1B8 PUSH1 0xB SLOAD DUP2 JUMP JUMPDEST PUSH2 0x1B8 PUSH1 0x3 SLOAD DUP2 JUMP JUMPDEST PUSH1 0x0 SLOAD PUSH1 0x1 PUSH1 0x1 PUSH1 0xA0 SHL SUB AND PUSH2 0x223 JUMP JUMPDEST PUSH2 0x36C PUSH2 0x357 CALLDATASIZE PUSH1 0x4 PUSH2 0x1002 JUMP JUMPDEST PUSH1 0xA PUSH1 0x20 MSTORE PUSH1 0x0 SWAP1 DUP2 MSTORE PUSH1 0x40 SWAP1 KECCAK256 SLOAD PUSH1 0xFF AND DUP2 JUMP JUMPDEST PUSH1 0x40 MLOAD SWAP1 ISZERO ISZERO DUP2 MSTORE PUSH1 0x20 ADD PUSH2 0x1C2 JUMP JUMPDEST PUSH2 0x2E5 PUSH2 0x700 JUMP JUMPDEST PUSH2 0x2E5 PUSH2 0x79E JUMP JUMPDEST PUSH2 0x2E5 PUSH2 0x39A CALLDATASIZE PUSH1 0x4 PUSH2 0x10A8 JUMP JUMPDEST PUSH2 0xA54 JUMP JUMPDEST PUSH2 0x1B8 PUSH1 0xD SLOAD DUP2 JUMP JUMPDEST PUSH2 0x1B8 PUSH2 0x3B6 CALLDATASIZE PUSH1 0x4 PUSH2 0x1002 JUMP JUMPDEST PUSH2 0xC39 JUMP JUMPDEST PUSH2 0x1B8 PUSH1 0xC SLOAD DUP2 JUMP JUMPDEST PUSH2 0x1B8 PUSH1 0x5 SLOAD DUP2 JUMP JUMPDEST PUSH2 0x1B8 PUSH1 0x8 SLOAD DUP2 JUMP JUMPDEST PUSH2 0x2E5 PUSH2 0x3E4 CALLDATASIZE PUSH1 0x4 PUSH2 0x1002 JUMP JUMPDEST PUSH2 0xD55 JUMP JUMPDEST PUSH2 0x2E5 PUSH2 0x3F7 CALLDATASIZE PUSH1 0x4 PUSH2 0x10F4 JUMP JUMPDEST PUSH2 0xDCE JUMP JUMPDEST PUSH2 0x1B8 PUSH11 0x25AEC36C1FB51FE180000 DUP2 JUMP JUMPDEST PUSH2 0x1B8 PUSH1 0x4 SLOAD DUP2 JUMP JUMPDEST PUSH1 0x1 PUSH1 0x1 PUSH1 0xA0 SHL SUB DUP2 AND PUSH1 0x0 SWAP1 DUP2 MSTORE PUSH1 0xA PUSH1 0x20 MSTORE PUSH1 0x40 DUP2 KECCAK256 SLOAD DUP2 SWAP1 DUP2 SWAP1 DUP2 SWAP1 DUP2 SWAP1 PUSH1 0xFF AND PUSH2 0x460 JUMPI PUSH1 0x40 MLOAD PUSH3 0x461BCD PUSH1 0xE5 SHL DUP2 MSTORE PUSH1 0x4 ADD PUSH2 0x457 SWAP1 PUSH2 0x112E JUMP JUMPDEST PUSH1 0x40 MLOAD DUP1 SWAP2 SUB SWAP1 REVERT JUMPDEST PUSH1 0x1 PUSH1 0x1 PUSH1 0xA0 SHL SUB DUP7 AND PUSH1 0x0 SWAP1 DUP2 MSTORE PUSH1 0x9 PUSH1 0x20 MSTORE PUSH1 0x40 SWAP1 KECCAK256 DUP1 SLOAD PUSH2 0x483 DUP9 PUSH2 0xC39 JUMP JUMPDEST PUSH1 0x3 DUP4 ADD SLOAD PUSH1 0x5 DUP5 ADD SLOAD PUSH1 0x6 SWAP1 SWAP5 ADD SLOAD SWAP3 SWAP11 SWAP2 SWAP10 POP SWAP8 POP PUSH1 0xFF SWAP1 SWAP3 AND SWAP6 POP SWAP4 POP SWAP2 POP POP JUMP JUMPDEST CALLER PUSH1 0x0 SWAP1 DUP2 MSTORE PUSH1 0xA PUSH1 0x20 MSTORE PUSH1 0x40 SWAP1 KECCAK256 SLOAD PUSH1 0xFF AND PUSH2 0x4D7 JUMPI PUSH1 0x40 MLOAD PUSH3 0x461BCD PUSH1 0xE5 SHL DUP2 MSTORE PUSH1 0x4 ADD PUSH2 0x457 SWAP1 PUSH2 0x112E JUMP JUMPDEST PUSH1 0x64 DUP2 LT ISZERO DUP1 ISZERO PUSH2 0x4EB JUMPI POP PUSH3 0x989680 DUP2 GT ISZERO JUMPDEST PUSH2 0x52A JUMPI PUSH1 0x40 MLOAD PUSH3 0x461BCD PUSH1 0xE5 SHL DUP2 MSTORE PUSH1 0x20 PUSH1 0x4 DUP3 ADD MSTORE PUSH1 0x10 PUSH1 0x24 DUP3 ADD MSTORE PUSH16 0x496E76616C6964206861736872617465 PUSH1 0x80 SHL PUSH1 0x44 DUP3 ADD MSTORE PUSH1 0x64 ADD PUSH2 0x457 JUMP JUMPDEST CALLER PUSH1 0x0 SWAP1 DUP2 MSTORE PUSH1 0x9 PUSH1 0x20 MSTORE PUSH1 0x40 SWAP1 KECCAK256 PUSH1 0x5 DUP2 ADD SLOAD PUSH1 0xFF AND PUSH2 0x580 JUMPI PUSH1 0x40 MLOAD PUSH3 0x461BCD PUSH1 0xE5 SHL DUP2 MSTORE PUSH1 0x20 PUSH1 0x4 DUP3 ADD MSTORE PUSH1 0x10 PUSH1 0x24 DUP3 ADD MSTORE PUSH16 0x4D696E6572206E6F7420616374697665 PUSH1 0x80 SHL PUSH1 0x44 DUP3 ADD MSTORE PUSH1 0x64 ADD PUSH2 0x457 JUMP JUMPDEST DUP1 SLOAD PUSH2 0x58D SWAP1 PUSH1 0x2 PUSH2 0x1172 JUMP JUMPDEST DUP3 GT DUP1 ISZERO PUSH2 0x5AC JUMPI POP TIMESTAMP DUP2 PUSH1 0x1 ADD SLOAD PUSH3 0x15180 PUSH2 0x5AA SWAP2 SWAP1 PUSH2 0x118F JUMP JUMPDEST LT JUMPDEST ISZERO PUSH2 0x63A JUMPI PUSH1 0xA DUP2 PUSH1 0x6 ADD PUSH1 0x0 DUP3 DUP3 SLOAD PUSH2 0x5C6 SWAP2 SWAP1 PUSH2 0x118F JUMP JUMPDEST SWAP1 SWAP2 SSTORE POP POP PUSH1 0x6 DUP2 ADD SLOAD PUSH1 0x40 DUP1 MLOAD SWAP2 DUP3 MSTORE PUSH1 0x20 DUP3 ADD DUP2 SWAP1 MSTORE PUSH1 0x18 SWAP1 DUP3 ADD MSTORE PUSH32 0x53756464656E20686173687261746520696E6372656173650000000000000000 PUSH1 0x60 DUP3 ADD MSTORE CALLER SWAP1 PUSH32 0x6F09C4C797C15B3E86A200BA4298B41853578D9FCD389B74C5F7C09E97810848 SWAP1 PUSH1 0x80 ADD PUSH1 0x40 MLOAD DUP1 SWAP2 SUB SWAP1 LOG2 JUMPDEST DUP1 SLOAD PUSH1 0xC SLOAD DUP4 SWAP1 PUSH2 0x64C SWAP1 DUP4 SWAP1 PUSH2 0x11A2 JUMP JUMPDEST PUSH2 0x656 SWAP2 SWAP1 PUSH2 0x118F JUMP JUMPDEST PUSH1 0xC SSTORE DUP3 DUP3 SSTORE PUSH1 0x40 DUP1 MLOAD DUP3 DUP2 MSTORE PUSH1 0x20 DUP2 ADD DUP6 SWAP1 MSTORE CALLER SWAP2 PUSH32 0x316A87F62FEDB99538F47168259456588590EBBC2ECEC4131D0C195786C0FBC8 SWAP2 ADD JUMPDEST PUSH1 0x40 MLOAD DUP1 SWAP2 SUB SWAP1 LOG2 POP POP POP JUMP JUMPDEST PUSH2 0x6A5 PUSH2 0xEE3 JUMP JUMPDEST PUSH1 0x3 DUP3 SWAP1 SSTORE PUSH1 0x4 DUP2 SWAP1 SSTORE PUSH1 0x40 DUP1 MLOAD DUP4 DUP2 MSTORE PUSH1 0x20 DUP2 ADD DUP4 SWAP1 MSTORE PUSH32 0xF3A6EE10A78FB7D212E87D9BE970FB16BD7324E9DC9C38D21CD7ECDE781A1D2A SWAP2 ADD PUSH1 0x40 MLOAD DUP1 SWAP2 SUB SWAP1 LOG1 POP POP JUMP JUMPDEST PUSH2 0x6F4 PUSH2 0xEE3 JUMP JUMPDEST PUSH2 0x6FE PUSH1 0x0 PUSH2 0xF3D JUMP JUMPDEST JUMP JUMPDEST PUSH2 0x708 PUSH2 0xEE3 JUMP JUMPDEST PUSH1 0x8 SLOAD PUSH1 0x7 SLOAD PUSH2 0x718 SWAP2 SWAP1 PUSH2 0x118F JUMP JUMPDEST TIMESTAMP LT ISZERO PUSH2 0x75D JUMPI PUSH1 0x40 MLOAD PUSH3 0x461BCD PUSH1 0xE5 SHL DUP2 MSTORE PUSH1 0x20 PUSH1 0x4 DUP3 ADD MSTORE PUSH1 0x13 PUSH1 0x24 DUP3 ADD MSTORE PUSH19 0x151BDBC819585C9B1E481D1BC818591A9D5CDD PUSH1 0x6A SHL PUSH1 0x44 DUP3 ADD MSTORE PUSH1 0x64 ADD PUSH2 0x457 JUMP JUMPDEST PUSH1 0xC SLOAD PUSH1 0x6 DUP2 SWAP1 SSTORE TIMESTAMP PUSH1 0x7 SSTORE PUSH1 0x40 MLOAD SWAP1 DUP2 MSTORE PUSH32 0x42EBC15644FE1CA39E719C989E249095A01E7BF6C4E2EA33889A7E33A7664CAA SWAP1 PUSH1 0x20 ADD PUSH1 0x40 MLOAD DUP1 SWAP2 SUB SWAP1 LOG1 JUMP JUMPDEST PUSH2 0x7A6 PUSH2 0xF8D JUMP JUMPDEST CALLER PUSH1 0x0 SWAP1 DUP2 MSTORE PUSH1 0xA PUSH1 0x20 MSTORE PUSH1 0x40 SWAP1 KECCAK256 SLOAD PUSH1 0xFF AND PUSH2 0x7D5 JUMPI PUSH1 0x40 MLOAD PUSH3 0x461BCD PUSH1 0xE5 SHL DUP2 MSTORE PUSH1 0x4 ADD PUSH2 0x457 SWAP1 PUSH2 0x112E JUMP JUMPDEST CALLER PUSH1 0x0 SWAP1 DUP2 MSTORE PUSH1 0x9 PUSH1 0x20 MSTORE PUSH1 0x40 SWAP1 KECCAK256 PUSH1 0x5 DUP2 ADD SLOAD PUSH1 0xFF AND PUSH2 0x82B JUMPI PUSH1 0x40 MLOAD PUSH3 0x461BCD PUSH1 0xE5 SHL DUP2 MSTORE PUSH1 0x20 PUSH1 0x4 DUP3 ADD MSTORE PUSH1 0x10 PUSH1 0x24 DUP3 ADD MSTORE PUSH16 0x4D696E6572206E6F7420616374697665 PUSH1 0x80 SHL PUSH1 0x44 DUP3 ADD MSTORE PUSH1 0x64 ADD PUSH2 0x457 JUMP JUMPDEST PUSH1 0x0 DUP2 PUSH1 0x1 ADD SLOAD TIMESTAMP PUSH2 0x83D SWAP2 SWAP1 PUSH2 0x11A2 JUMP JUMPDEST SWAP1 POP PUSH1 0x4 SLOAD DUP2 LT ISZERO PUSH2 0x88A JUMPI PUSH1 0x40 MLOAD PUSH3 0x461BCD PUSH1 0xE5 SHL DUP2 MSTORE PUSH1 0x20 PUSH1 0x4 DUP3 ADD MSTORE PUSH1 0x16 PUSH1 0x24 DUP3 ADD MSTORE PUSH22 0x10DB185A5B4818DBDBDB191BDDDB881B9BDD081B595D PUSH1 0x52 SHL PUSH1 0x44 DUP3 ADD MSTORE PUSH1 0x64 ADD PUSH2 0x457 JUMP JUMPDEST PUSH1 0x0 PUSH2 0x895 CALLER PUSH2 0xC39 JUMP JUMPDEST SWAP1 POP PUSH1 0x0 DUP2 GT PUSH2 0x8DC JUMPI PUSH1 0x40 MLOAD PUSH3 0x461BCD PUSH1 0xE5 SHL DUP2 MSTORE PUSH1 0x20 PUSH1 0x4 DUP3 ADD MSTORE PUSH1 0x12 PUSH1 0x24 DUP3 ADD MSTORE PUSH18 0x4E6F2072657761726420746F20636C61696D PUSH1 0x70 SHL PUSH1 0x44 DUP3 ADD MSTORE PUSH1 0x64 ADD PUSH2 0x457 JUMP JUMPDEST PUSH3 0x93A80 DUP3 GT DUP1 ISZERO PUSH2 0x8F9 JUMPI POP PUSH2 0x8F5 PUSH1 0x64 PUSH1 0xA PUSH2 0x1172 JUMP JUMPDEST DUP4 SLOAD GT JUMPDEST ISZERO PUSH2 0x919 JUMPI PUSH1 0x5 DUP4 PUSH1 0x6 ADD PUSH1 0x0 DUP3 DUP3 SLOAD PUSH2 0x913 SWAP2 SWAP1 PUSH2 0x118F JUMP JUMPDEST SWAP1 SWAP2 SSTORE POP POP JUMPDEST PUSH1 0x0 PUSH1 0x2 DUP5 ADD DUP2 SWAP1 SSTORE TIMESTAMP PUSH1 0x1 DUP6 ADD SSTORE PUSH1 0x3 DUP5 ADD DUP1 SLOAD DUP4 SWAP3 SWAP1 PUSH2 0x93C SWAP1 DUP5 SWAP1 PUSH2 0x118F JUMP JUMPDEST SWAP3 POP POP DUP2 SWAP1 SSTORE POP DUP1 PUSH1 0xD PUSH1 0x0 DUP3 DUP3 SLOAD PUSH2 0x955 SWAP2 SWAP1 PUSH2 0x118F JUMP JUMPDEST SWAP1 SWAP2 SSTORE POP POP PUSH1 0x2 SLOAD PUSH1 0x40 MLOAD PUSH4 0xA9059CBB PUSH1 0xE0 SHL DUP2 MSTORE CALLER PUSH1 0x4 DUP3 ADD MSTORE PUSH1 0x24 DUP2 ADD DUP4 SWAP1 MSTORE PUSH1 0x1 PUSH1 0x1 PUSH1 0xA0 SHL SUB SWAP1 SWAP2 AND SWAP1 PUSH4 0xA9059CBB SWAP1 PUSH1 0x44 ADD PUSH1 0x20 PUSH1 0x40 MLOAD DUP1 DUP4 SUB DUP2 PUSH1 0x0 DUP8 GAS CALL ISZERO DUP1 ISZERO PUSH2 0x9AB JUMPI RETURNDATASIZE PUSH1 0x0 DUP1 RETURNDATACOPY RETURNDATASIZE PUSH1 0x0 REVERT JUMPDEST POP POP POP POP PUSH1 0x40 MLOAD RETURNDATASIZE PUSH1 0x1F NOT PUSH1 0x1F DUP3 ADD AND DUP3 ADD DUP1 PUSH1 0x40 MSTORE POP DUP2 ADD SWAP1 PUSH2 0x9CF SWAP2 SWAP1 PUSH2 0x11B5 JUMP JUMPDEST PUSH2 0xA13 JUMPI PUSH1 0x40 MLOAD PUSH3 0x461BCD PUSH1 0xE5 SHL DUP2 MSTORE PUSH1 0x20 PUSH1 0x4 DUP3 ADD MSTORE PUSH1 0x15 PUSH1 0x24 DUP3 ADD MSTORE PUSH21 0x151BDAD95B881D1C985B9CD9995C8819985A5B1959 PUSH1 0x5A SHL PUSH1 0x44 DUP3 ADD MSTORE PUSH1 0x64 ADD PUSH2 0x457 JUMP JUMPDEST PUSH1 0x40 MLOAD DUP2 DUP2 MSTORE CALLER SWAP1 PUSH32 0x106F923F993C2149D49B4255FF723ACAFA1F2D94393F561D3EDA32AE348F7241 SWAP1 PUSH1 0x20 ADD PUSH1 0x40 MLOAD DUP1 SWAP2 SUB SWAP1 LOG2 POP POP POP PUSH2 0x6FE PUSH1 0x1 DUP1 SSTORE JUMP JUMPDEST PUSH1 0x64 DUP4 LT ISZERO DUP1 ISZERO PUSH2 0xA68 JUMPI POP PUSH3 0x989680 DUP4 GT ISZERO JUMPDEST PUSH2 0xAA7 JUMPI PUSH1 0x40 MLOAD PUSH3 0x461BCD PUSH1 0xE5 SHL DUP2 MSTORE PUSH1 0x20 PUSH1 0x4 DUP3 ADD MSTORE PUSH1 0x10 PUSH1 0x24 DUP3 ADD MSTORE PUSH16 0x496E76616C6964206861736872617465 PUSH1 0x80 SHL PUSH1 0x44 DUP3 ADD MSTORE PUSH1 0x64 ADD PUSH2 0x457 JUMP JUMPDEST CALLER PUSH1 0x0 SWAP1 DUP2 MSTORE PUSH1 0xA PUSH1 0x20 MSTORE PUSH1 0x40 SWAP1 KECCAK256 SLOAD PUSH1 0xFF AND ISZERO PUSH2 0xB07 JUMPI PUSH1 0x40 MLOAD PUSH3 0x461BCD PUSH1 0xE5 SHL DUP2 MSTORE PUSH1 0x20 PUSH1 0x4 DUP3 ADD MSTORE PUSH1 0x18 PUSH1 0x24 DUP3 ADD MSTORE PUSH32 0x4D696E657220616C726561647920726567697374657265640000000000000000 PUSH1 0x44 DUP3 ADD MSTORE PUSH1 0x64 ADD PUSH2 0x457 JUMP JUMPDEST DUP1 PUSH2 0xB49 JUMPI PUSH1 0x40 MLOAD PUSH3 0x461BCD PUSH1 0xE5 SHL DUP2 MSTORE PUSH1 0x20 PUSH1 0x4 DUP3 ADD MSTORE PUSH1 0x12 PUSH1 0x24 DUP3 ADD MSTORE PUSH18 0x11195D9A58D9481251081C995C5D5A5C9959 PUSH1 0x72 SHL PUSH1 0x44 DUP3 ADD MSTORE PUSH1 0x64 ADD PUSH2 0x457 JUMP JUMPDEST PUSH1 0x40 DUP1 MLOAD PUSH1 0xE0 DUP2 ADD DUP3 MSTORE DUP5 DUP2 MSTORE TIMESTAMP PUSH1 0x20 DUP1 DUP4 ADD DUP3 DUP2 MSTORE PUSH1 0x0 DUP5 DUP7 ADD DUP2 DUP2 MSTORE PUSH1 0x60 DUP7 ADD DUP3 DUP2 MSTORE PUSH1 0x80 DUP8 ADD SWAP6 DUP7 MSTORE PUSH1 0x1 PUSH1 0xA0 DUP9 ADD DUP2 DUP2 MSTORE PUSH1 0xC0 DUP10 ADD DUP6 DUP2 MSTORE CALLER DUP7 MSTORE PUSH1 0x9 DUP9 MSTORE DUP11 DUP7 KECCAK256 SWAP10 MLOAD DUP11 SSTORE SWAP6 MLOAD DUP10 DUP4 ADD SSTORE SWAP3 MLOAD PUSH1 0x2 DUP10 ADD SSTORE SWAP1 MLOAD PUSH1 0x3 DUP9 ADD SSTORE SWAP5 MLOAD PUSH1 0x4 DUP8 ADD SSTORE MLOAD PUSH1 0x5 DUP7 ADD DUP1 SLOAD SWAP2 ISZERO ISZERO PUSH1 0xFF NOT SWAP3 DUP4 AND OR SWAP1 SSTORE SWAP2 MLOAD PUSH1 0x6 SWAP1 SWAP6 ADD SWAP5 SWAP1 SWAP5 SSTORE PUSH1 0xA SWAP1 SWAP2 MSTORE SWAP3 DUP3 KECCAK256 DUP1 SLOAD SWAP1 SWAP4 AND OR SWAP1 SWAP2 SSTORE PUSH1 0xB DUP1 SLOAD SWAP2 PUSH2 0xBEB DUP4 PUSH2 0x11D7 JUMP JUMPDEST SWAP2 SWAP1 POP SSTORE POP DUP3 PUSH1 0xC PUSH1 0x0 DUP3 DUP3 SLOAD PUSH2 0xC02 SWAP2 SWAP1 PUSH2 0x118F JUMP JUMPDEST SWAP1 SWAP2 SSTORE POP POP PUSH1 0x40 MLOAD DUP4 DUP2 MSTORE CALLER SWAP1 PUSH32 0x9F75AF45683A8DC8C992AADB62DDD8B1F460EC386A36B794110630DB3D138CCE SWAP1 PUSH1 0x20 ADD PUSH2 0x690 JUMP JUMPDEST PUSH1 0x1 PUSH1 0x1 PUSH1 0xA0 SHL SUB DUP2 AND PUSH1 0x0 SWAP1 DUP2 MSTORE PUSH1 0xA PUSH1 0x20 MSTORE PUSH1 0x40 DUP2 KECCAK256 SLOAD PUSH1 0xFF AND PUSH2 0xC71 JUMPI PUSH1 0x40 MLOAD PUSH3 0x461BCD PUSH1 0xE5 SHL DUP2 MSTORE PUSH1 0x4 ADD PUSH2 0x457 SWAP1 PUSH2 0x112E JUMP JUMPDEST PUSH1 0x1 PUSH1 0x1 PUSH1 0xA0 SHL SUB DUP3 AND PUSH1 0x0 SWAP1 DUP2 MSTORE PUSH1 0x9 PUSH1 0x20 MSTORE PUSH1 0x40 SWAP1 KECCAK256 PUSH1 0x5 DUP2 ADD SLOAD PUSH1 0xFF AND ISZERO DUP1 PUSH2 0xC9C JUMPI POP DUP1 SLOAD ISZERO JUMPDEST ISZERO PUSH2 0xCAB JUMPI PUSH1 0x2 ADD SLOAD SWAP3 SWAP2 POP POP JUMP JUMPDEST PUSH1 0x5 SLOAD DUP2 PUSH1 0x4 ADD SLOAD PUSH2 0xCBD SWAP2 SWAP1 PUSH2 0x118F JUMP JUMPDEST TIMESTAMP LT ISZERO PUSH2 0xCCE JUMPI PUSH1 0x2 ADD SLOAD SWAP3 SWAP2 POP POP JUMP JUMPDEST PUSH1 0x0 DUP2 PUSH1 0x1 ADD SLOAD TIMESTAMP PUSH2 0xCE0 SWAP2 SWAP1 PUSH2 0x11A2 JUMP JUMPDEST PUSH1 0xC SLOAD SWAP1 SWAP2 POP PUSH11 0x25AEC36C1FB51FE180000 SWAP1 PUSH1 0x0 SWAP1 ISZERO PUSH2 0xD03 JUMPI PUSH1 0xC SLOAD PUSH2 0xD06 JUMP JUMPDEST PUSH1 0x1 JUMPDEST DUP5 SLOAD PUSH2 0xD12 SWAP1 DUP5 PUSH2 0x1172 JUMP JUMPDEST PUSH2 0xD1C SWAP2 SWAP1 PUSH2 0x11F0 JUMP JUMPDEST SWAP1 POP PUSH1 0x0 PUSH3 0x15180 PUSH2 0xD2E DUP6 DUP5 PUSH2 0x1172 JUMP JUMPDEST PUSH2 0xD38 SWAP2 SWAP1 PUSH2 0x11F0 JUMP JUMPDEST SWAP1 POP DUP1 DUP6 PUSH1 0x2 ADD SLOAD PUSH2 0xD4A SWAP2 SWAP1 PUSH2 0x118F JUMP JUMPDEST SWAP8 SWAP7 POP POP POP POP POP POP POP JUMP JUMPDEST PUSH2 0xD5D PUSH2 0xEE3 JUMP JUMPDEST PUSH1 0x1 PUSH1 0x1 PUSH1 0xA0 SHL SUB DUP2 AND PUSH2 0xDC2 JUMPI PUSH1 0x40 MLOAD PUSH3 0x461BCD PUSH1 0xE5 SHL DUP2 MSTORE PUSH1 0x20 PUSH1 0x4 DUP3 ADD MSTORE PUSH1 0x26 PUSH1 0x24 DUP3 ADD MSTORE PUSH32 0x4F776E61626C653A206E6577206F776E657220697320746865207A65726F2061 PUSH1 0x44 DUP3 ADD MSTORE PUSH6 0x646472657373 PUSH1 0xD0 SHL PUSH1 0x64 DUP3 ADD MSTORE PUSH1 0x84 ADD PUSH2 0x457 JUMP JUMPDEST PUSH2 0xDCB DUP2 PUSH2 0xF3D JUMP JUMPDEST POP JUMP JUMPDEST PUSH2 0xDD6 PUSH2 0xEE3 JUMP JUMPDEST PUSH1 0x1 PUSH1 0x1 PUSH1 0xA0 SHL SUB DUP4 AND PUSH1 0x0 SWAP1 DUP2 MSTORE PUSH1 0xA PUSH1 0x20 MSTORE PUSH1 0x40 SWAP1 KECCAK256 SLOAD PUSH1 0xFF AND PUSH2 0xE0E JUMPI PUSH1 0x40 MLOAD PUSH3 0x461BCD PUSH1 0xE5 SHL DUP2 MSTORE PUSH1 0x4 ADD PUSH2 0x457 SWAP1 PUSH2 0x112E JUMP JUMPDEST PUSH1 0x1 PUSH1 0x1 PUSH1 0xA0 SHL SUB DUP4 AND PUSH1 0x0 SWAP1 DUP2 MSTORE PUSH1 0x9 PUSH1 0x20 MSTORE PUSH1 0x40 SWAP1 KECCAK256 PUSH1 0x5 DUP2 ADD SLOAD PUSH1 0xFF AND PUSH2 0xE73 JUMPI PUSH1 0x40 MLOAD PUSH3 0x461BCD PUSH1 0xE5 SHL DUP2 MSTORE PUSH1 0x20 PUSH1 0x4 DUP3 ADD MSTORE PUSH1 0x16 PUSH1 0x24 DUP3 ADD MSTORE PUSH22 0x4D696E657220616C726561647920696E616374697665 PUSH1 0x50 SHL PUSH1 0x44 DUP3 ADD MSTORE PUSH1 0x64 ADD PUSH2 0x457 JUMP JUMPDEST PUSH1 0x5 DUP2 ADD DUP1 SLOAD PUSH1 0xFF NOT AND SWAP1 SSTORE DUP1 SLOAD PUSH1 0xC DUP1 SLOAD PUSH1 0x0 SWAP1 PUSH2 0xE93 SWAP1 DUP5 SWAP1 PUSH2 0x11A2 JUMP JUMPDEST SWAP3 POP POP DUP2 SWAP1 SSTORE POP DUP4 PUSH1 0x1 PUSH1 0x1 PUSH1 0xA0 SHL SUB AND PUSH32 0x1DBC7ADD33E0269629606381F602BF4330A50C1FF021F1297FFD64B7558D5B0E DUP5 DUP5 PUSH1 0x40 MLOAD PUSH2 0xED5 SWAP3 SWAP2 SWAP1 PUSH2 0x1212 JUMP JUMPDEST PUSH1 0x40 MLOAD DUP1 SWAP2 SUB SWAP1 LOG2 POP POP POP POP JUMP JUMPDEST PUSH1 0x0 SLOAD PUSH1 0x1 PUSH1 0x1 PUSH1 0xA0 SHL SUB AND CALLER EQ PUSH2 0x6FE JUMPI PUSH1 0x40 MLOAD PUSH3 0x461BCD PUSH1 0xE5 SHL DUP2 MSTORE PUSH1 0x20 PUSH1 0x4 DUP3 ADD DUP2 SWAP1 MSTORE PUSH1 0x24 DUP3 ADD MSTORE PUSH32 0x4F776E61626C653A2063616C6C6572206973206E6F7420746865206F776E6572 PUSH1 0x44 DUP3 ADD MSTORE PUSH1 0x64 ADD PUSH2 0x457 JUMP JUMPDEST PUSH1 0x0 DUP1 SLOAD PUSH1 0x1 PUSH1 0x1 PUSH1 0xA0 SHL SUB DUP4 DUP2 AND PUSH1 0x1 PUSH1 0x1 PUSH1 0xA0 SHL SUB NOT DUP4 AND DUP2 OR DUP5 SSTORE PUSH1 0x40 MLOAD SWAP2 SWAP1 SWAP3 AND SWAP3 DUP4 SWAP2 PUSH32 0x8BE0079C531659141344CD1FD0A4F28419497F9722A3DAAFE3B4186F6B6457E0 SWAP2 SWAP1 LOG3 POP POP JUMP JUMPDEST PUSH1 0x2 PUSH1 0x1 SLOAD SUB PUSH2 0xFDF JUMPI PUSH1 0x40 MLOAD PUSH3 0x461BCD PUSH1 0xE5 SHL DUP2 MSTORE PUSH1 0x20 PUSH1 0x4 DUP3 ADD MSTORE PUSH1 0x1F PUSH1 0x24 DUP3 ADD MSTORE PUSH32 0x5265656E7472616E637947756172643A207265656E7472616E742063616C6C00 PUSH1 0x44 DUP3 ADD MSTORE PUSH1 0x64 ADD PUSH2 0x457 JUMP JUMPDEST PUSH1 0x2 PUSH1 0x1 SSTORE JUMP JUMPDEST DUP1 CALLDATALOAD PUSH1 0x1 PUSH1 0x1 PUSH1 0xA0 SHL SUB DUP2 AND DUP2 EQ PUSH2 0xFFD JUMPI PUSH1 0x0 DUP1 REVERT JUMPDEST SWAP2 SWAP1 POP JUMP JUMPDEST PUSH1 0x0 PUSH1 0x20 DUP3 DUP5 SUB SLT ISZERO PUSH2 0x1014 JUMPI PUSH1 0x0 DUP1 REVERT JUMPDEST PUSH2 0x101D DUP3 PUSH2 0xFE6 JUMP JUMPDEST SWAP4 SWAP3 POP POP POP JUMP JUMPDEST PUSH1 0x0 PUSH1 0x20 DUP3 DUP5 SUB SLT ISZERO PUSH2 0x1036 JUMPI PUSH1 0x0 DUP1 REVERT JUMPDEST POP CALLDATALOAD SWAP2 SWAP1 POP JUMP JUMPDEST PUSH1 0x0 DUP1 PUSH1 0x40 DUP4 DUP6 SUB SLT ISZERO PUSH2 0x1050 JUMPI PUSH1 0x0 DUP1 REVERT JUMPDEST POP POP DUP1 CALLDATALOAD SWAP3 PUSH1 0x20 SWAP1 SWAP2 ADD CALLDATALOAD SWAP2 POP JUMP JUMPDEST PUSH1 0x0 DUP1 DUP4 PUSH1 0x1F DUP5 ADD SLT PUSH2 0x1071 JUMPI PUSH1 0x0 DUP1 REVERT JUMPDEST POP DUP2 CALLDATALOAD PUSH8 0xFFFFFFFFFFFFFFFF DUP2 GT ISZERO PUSH2 0x1089 JUMPI PUSH1 0x0 DUP1 REVERT JUMPDEST PUSH1 0x20 DUP4 ADD SWAP2 POP DUP4 PUSH1 0x20 DUP3 DUP6 ADD ADD GT ISZERO PUSH2 0x10A1 JUMPI PUSH1 0x0 DUP1 REVERT JUMPDEST SWAP3 POP SWAP3 SWAP1 POP JUMP JUMPDEST PUSH1 0x0 DUP1 PUSH1 0x0 PUSH1 0x40 DUP5 DUP7 SUB SLT ISZERO PUSH2 0x10BD JUMPI PUSH1 0x0 DUP1 REVERT JUMPDEST DUP4 CALLDATALOAD SWAP3 POP PUSH1 0x20 DUP5 ADD CALLDATALOAD PUSH8 0xFFFFFFFFFFFFFFFF DUP2 GT ISZERO PUSH2 0x10DB JUMPI PUSH1 0x0 DUP1 REVERT JUMPDEST PUSH2 0x10E7 DUP7 DUP3 DUP8 ADD PUSH2 0x105F JUMP JUMPDEST SWAP5 SWAP8 SWAP1 SWAP7 POP SWAP4 SWAP5 POP POP POP POP JUMP JUMPDEST PUSH1 0x0 DUP1 PUSH1 0x0 PUSH1 0x40 DUP5 DUP7 SUB SLT ISZERO PUSH2 0x1109 JUMPI PUSH1 0x0 DUP1 REVERT JUMPDEST PUSH2 0x1112 DUP5 PUSH2 0xFE6 JUMP JUMPDEST SWAP3 POP PUSH1 0x20 DUP5 ADD CALLDATALOAD PUSH8 0xFFFFFFFFFFFFFFFF DUP2 GT ISZERO PUSH2 0x10DB JUMPI PUSH1 0x0 DUP1 REVERT JUMPDEST PUSH1 0x20 DUP1 DUP3 MSTORE PUSH1 0x14 SWAP1 DUP3 ADD MSTORE PUSH20 0x135A5B995C881B9BDD081C9959DA5CDD195C9959 PUSH1 0x62 SHL PUSH1 0x40 DUP3 ADD MSTORE PUSH1 0x60 ADD SWAP1 JUMP JUMPDEST PUSH4 0x4E487B71 PUSH1 0xE0 SHL PUSH1 0x0 MSTORE PUSH1 0x11 PUSH1 0x4 MSTORE PUSH1 0x24 PUSH1 0x0 REVERT JUMPDEST DUP1 DUP3 MUL DUP2 ISZERO DUP3 DUP3 DIV DUP5 EQ OR PUSH2 0x1189 JUMPI PUSH2 0x1189 PUSH2 0x115C JUMP JUMPDEST SWAP3 SWAP2 POP POP JUMP JUMPDEST DUP1 DUP3 ADD DUP1 DUP3 GT ISZERO PUSH2 0x1189 JUMPI PUSH2 0x1189 PUSH2 0x115C JUMP JUMPDEST DUP2 DUP2 SUB DUP2 DUP2 GT ISZERO PUSH2 0x1189 JUMPI PUSH2 0x1189 PUSH2 0x115C JUMP JUMPDEST PUSH1 0x0 PUSH1 0x20 DUP3 DUP5 SUB SLT ISZERO PUSH2 0x11C7 JUMPI PUSH1 0x0 DUP1 REVERT JUMPDEST DUP2 MLOAD DUP1 ISZERO ISZERO DUP2 EQ PUSH2 0x101D JUMPI PUSH1 0x0 DUP1 REVERT JUMPDEST PUSH1 0x0 PUSH1 0x1 DUP3 ADD PUSH2 0x11E9 JUMPI PUSH2 0x11E9 PUSH2 0x115C JUMP JUMPDEST POP PUSH1 0x1 ADD SWAP1 JUMP JUMPDEST PUSH1 0x0 DUP3 PUSH2 0x120D JUMPI PUSH4 0x4E487B71 PUSH1 0xE0 SHL PUSH1 0x0 MSTORE PUSH1 0x12 PUSH1 0x4 MSTORE PUSH1 0x24 PUSH1 0x0 REVERT JUMPDEST POP DIV SWAP1 JUMP JUMPDEST PUSH1 0x20 DUP2 MSTORE DUP2 PUSH1 0x20 DUP3 ADD MSTORE DUP2 DUP4 PUSH1 0x40 DUP4 ADD CALLDATACOPY PUSH1 0x0 DUP2 DUP4 ADD PUSH1 0x40 SWAP1 DUP2 ADD SWAP2 SWAP1 SWAP2 MSTORE PUSH1 0x1F SWAP1 SWAP3 ADD PUSH1 0x1F NOT AND ADD ADD SWAP2 SWAP1 POP JUMP INVALID LOG2 PUSH5 0x6970667358 0x22 SLT KECCAK256 SGT NUMBER EXTCODEHASH 0x4D CODESIZE SWAP3 0xA8 PUSH30 0x80A2D30B2100559535EDE702DEA5F6CFF67F93C4EE94B5D864736F6C6343 STOP ADDMOD XOR STOP CALLER "},"methodIdentifiers":{"DAILY_EMISSION()":"fb27faf1","MAX_HASHRATE()":"06e1f11e","MIN_HASHRATE()":"281e9fd7","adjustDifficulty()":"8f928b3d","calculatePendingReward(address)":"e7d21287","claimCooldown()":"fdea3657","claimReward()":"b88a802f","deactivateMiner(address,string)":"f49100aa","difficultyAdjustmentPeriod()":"f01551f6","getGlobalStats()":"6b4169c3","getMinerInfo(address)":"0b34d553","globalHashrate()":"44eda33f","lastDifficultyAdjustment()":"52ddb906","lockupPeriod()":"ee947a7c","miners(address)":"648ec7b9","owner()":"8da5cb5b","registerMiner(uint256,string)":"c9e73393","registeredMiners(address)":"8f3c762b","renounceOwnership()":"715018a6","rewardPerHashPerDay()":"87b09bed","superToken()":"2b4116f7","totalActiveHashrate()":"e992cfc0","totalEmitted()":"df0244b1","totalMiners()":"764fe7d1","transferOwnership(address)":"f2fde38b","updateHashrate(uint256)":"652e27cc","updateRewardParameters(uint256,uint256)":"6c9ecd64"}}}}}