{
  "_format": "hh-sol-artifact-1",
  "contractName": "SwapRouter",
  "sourceName": "contracts/SwapRouter.sol",
  "abi": [
    {
      "inputs": [
        {
          "internalType": "address",
          "name": "_super",
          "type": "address"
        },
        {
          "internalType": "address",
          "name": "_usdt",
          "type": "address"
        }
      ],
      "stateMutability": "nonpayable",
      "type": "constructor"
    },
    {
      "anonymous": false,
      "inputs": [
        {
          "indexed": false,
          "internalType": "uint256",
          "name": "platformFee",
          "type": "uint256"
        },
        {
          "indexed": false,
          "internalType": "uint256",
          "name": "ecosystemFee",
          "type": "uint256"
        }
      ],
      "name": "FeeCollected",
      "type": "event"
    },
    {
      "anonymous": false,
      "inputs": [
        {
          "indexed": true,
          "internalType": "address",
          "name": "provider",
          "type": "address"
        },
        {
          "indexed": false,
          "internalType": "uint256",
          "name": "superAmount",
          "type": "uint256"
        },
        {
          "indexed": false,
          "internalType": "uint256",
          "name": "usdtAmount",
          "type": "uint256"
        },
        {
          "indexed": false,
          "internalType": "uint256",
          "name": "sharesIssued",
          "type": "uint256"
        }
      ],
      "name": "LiquidityAdded",
      "type": "event"
    },
    {
      "anonymous": false,
      "inputs": [
        {
          "indexed": true,
          "internalType": "address",
          "name": "provider",
          "type": "address"
        },
        {
          "indexed": false,
          "internalType": "uint256",
          "name": "superAmount",
          "type": "uint256"
        },
        {
          "indexed": false,
          "internalType": "uint256",
          "name": "usdtAmount",
          "type": "uint256"
        },
        {
          "indexed": false,
          "internalType": "uint256",
          "name": "sharesBurned",
          "type": "uint256"
        }
      ],
      "name": "LiquidityRemoved",
      "type": "event"
    },
    {
      "anonymous": false,
      "inputs": [
        {
          "indexed": true,
          "internalType": "address",
          "name": "previousOwner",
          "type": "address"
        },
        {
          "indexed": true,
          "internalType": "address",
          "name": "newOwner",
          "type": "address"
        }
      ],
      "name": "OwnershipTransferred",
      "type": "event"
    },
    {
      "anonymous": false,
      "inputs": [
        {
          "indexed": false,
          "internalType": "uint256",
          "name": "priceSuperPerUSDT",
          "type": "uint256"
        }
      ],
      "name": "PriceUpdated",
      "type": "event"
    },
    {
      "anonymous": false,
      "inputs": [
        {
          "indexed": true,
          "internalType": "address",
          "name": "user",
          "type": "address"
        },
        {
          "indexed": false,
          "internalType": "bool",
          "name": "isSuperToUsdt",
          "type": "bool"
        },
        {
          "indexed": false,
          "internalType": "uint256",
          "name": "inputAmount",
          "type": "uint256"
        },
        {
          "indexed": false,
          "internalType": "uint256",
          "name": "outputAmount",
          "type": "uint256"
        },
        {
          "indexed": false,
          "internalType": "uint256",
          "name": "feeAmount",
          "type": "uint256"
        }
      ],
      "name": "Swap",
      "type": "event"
    },
    {
      "inputs": [],
      "name": "FEE_BIPS",
      "outputs": [
        {
          "internalType": "uint256",
          "name": "",
          "type": "uint256"
        }
      ],
      "stateMutability": "view",
      "type": "function"
    },
    {
      "inputs": [],
      "name": "accumulatedEcosystemFee",
      "outputs": [
        {
          "internalType": "uint256",
          "name": "",
          "type": "uint256"
        }
      ],
      "stateMutability": "view",
      "type": "function"
    },
    {
      "inputs": [],
      "name": "accumulatedPlatformFee",
      "outputs": [
        {
          "internalType": "uint256",
          "name": "",
          "type": "uint256"
        }
      ],
      "stateMutability": "view",
      "type": "function"
    },
    {
      "inputs": [
        {
          "internalType": "uint256",
          "name": "_superAmount",
          "type": "uint256"
        },
        {
          "internalType": "uint256",
          "name": "_usdtAmount",
          "type": "uint256"
        }
      ],
      "name": "addLiquidity",
      "outputs": [],
      "stateMutability": "nonpayable",
      "type": "function"
    },
    {
      "inputs": [
        {
          "internalType": "address",
          "name": "_recipient",
          "type": "address"
        }
      ],
      "name": "collectEcosystemFee",
      "outputs": [],
      "stateMutability": "nonpayable",
      "type": "function"
    },
    {
      "inputs": [],
      "name": "collectPlatformFee",
      "outputs": [],
      "stateMutability": "nonpayable",
      "type": "function"
    },
    {
      "inputs": [],
      "name": "ecosystemFeeShare",
      "outputs": [
        {
          "internalType": "uint256",
          "name": "",
          "type": "uint256"
        }
      ],
      "stateMutability": "view",
      "type": "function"
    },
    {
      "inputs": [],
      "name": "getPrice",
      "outputs": [
        {
          "internalType": "uint256",
          "name": "",
          "type": "uint256"
        }
      ],
      "stateMutability": "view",
      "type": "function"
    },
    {
      "inputs": [
        {
          "internalType": "uint256",
          "name": "_superAmount",
          "type": "uint256"
        },
        {
          "internalType": "uint256",
          "name": "_usdtAmount",
          "type": "uint256"
        }
      ],
      "name": "initializeLiquidity",
      "outputs": [],
      "stateMutability": "nonpayable",
      "type": "function"
    },
    {
      "inputs": [],
      "name": "lpFeeShare",
      "outputs": [
        {
          "internalType": "uint256",
          "name": "",
          "type": "uint256"
        }
      ],
      "stateMutability": "view",
      "type": "function"
    },
    {
      "inputs": [
        {
          "internalType": "address",
          "name": "",
          "type": "address"
        }
      ],
      "name": "lpShares",
      "outputs": [
        {
          "internalType": "uint256",
          "name": "",
          "type": "uint256"
        }
      ],
      "stateMutability": "view",
      "type": "function"
    },
    {
      "inputs": [],
      "name": "owner",
      "outputs": [
        {
          "internalType": "address",
          "name": "",
          "type": "address"
        }
      ],
      "stateMutability": "view",
      "type": "function"
    },
    {
      "inputs": [],
      "name": "platformFeeShare",
      "outputs": [
        {
          "internalType": "uint256",
          "name": "",
          "type": "uint256"
        }
      ],
      "stateMutability": "view",
      "type": "function"
    },
    {
      "inputs": [
        {
          "internalType": "uint256",
          "name": "",
          "type": "uint256"
        }
      ],
      "name": "priceHistory",
      "outputs": [
        {
          "internalType": "uint256",
          "name": "timestamp",
          "type": "uint256"
        },
        {
          "internalType": "uint256",
          "name": "priceSuperPerUSDT",
          "type": "uint256"
        }
      ],
      "stateMutability": "view",
      "type": "function"
    },
    {
      "inputs": [
        {
          "internalType": "uint256",
          "name": "_sharesToBurn",
          "type": "uint256"
        }
      ],
      "name": "removeLiquidity",
      "outputs": [],
      "stateMutability": "nonpayable",
      "type": "function"
    },
    {
      "inputs": [],
      "name": "renounceOwnership",
      "outputs": [],
      "stateMutability": "nonpayable",
      "type": "function"
    },
    {
      "inputs": [],
      "name": "reserveSuper",
      "outputs": [
        {
          "internalType": "uint256",
          "name": "",
          "type": "uint256"
        }
      ],
      "stateMutability": "view",
      "type": "function"
    },
    {
      "inputs": [],
      "name": "reserveUSDT",
      "outputs": [
        {
          "internalType": "uint256",
          "name": "",
          "type": "uint256"
        }
      ],
      "stateMutability": "view",
      "type": "function"
    },
    {
      "inputs": [],
      "name": "superToken",
      "outputs": [
        {
          "internalType": "contract IERC20",
          "name": "",
          "type": "address"
        }
      ],
      "stateMutability": "view",
      "type": "function"
    },
    {
      "inputs": [
        {
          "internalType": "uint256",
          "name": "_superAmount",
          "type": "uint256"
        }
      ],
      "name": "swapSuperToUsdt",
      "outputs": [
        {
          "internalType": "uint256",
          "name": "",
          "type": "uint256"
        }
      ],
      "stateMutability": "nonpayable",
      "type": "function"
    },
    {
      "inputs": [
        {
          "internalType": "uint256",
          "name": "_usdtAmount",
          "type": "uint256"
        }
      ],
      "name": "swapUsdtToSuper",
      "outputs": [
        {
          "internalType": "uint256",
          "name": "",
          "type": "uint256"
        }
      ],
      "stateMutability": "nonpayable",
      "type": "function"
    },
    {
      "inputs": [],
      "name": "totalLPShares",
      "outputs": [
        {
          "internalType": "uint256",
          "name": "",
          "type": "uint256"
        }
      ],
      "stateMutability": "view",
      "type": "function"
    },
    {
      "inputs": [
        {
          "internalType": "address",
          "name": "newOwner",
          "type": "address"
        }
      ],
      "name": "transferOwnership",
      "outputs": [],
      "stateMutability": "nonpayable",
      "type": "function"
    },
    {
      "inputs": [],
      "name": "usdtToken",
      "outputs": [
        {
          "internalType": "contract IERC20",
          "name": "",
          "type": "address"
        }
      ],
      "stateMutability": "view",
      "type": "function"
    }
  ],
  "bytecode": "0x608060405260466006556014600755600a6008553480156200002057600080fd5b5060405162001ca238038062001ca2833981016040819052620000439162000163565b6200004e33620000f6565b600180556001600160a01b038216158015906200007357506001600160a01b03811615155b620000c45760405162461bcd60e51b815260206004820152601760248201527f496e76616c696420746f6b656e20616464726573736573000000000000000000604482015260640160405180910390fd5b600280546001600160a01b039384166001600160a01b031991821617909155600380549290931691161790556200019b565b600080546001600160a01b038381166001600160a01b0319831681178455604051919092169283917f8be0079c531659141344cd1fd0a4f28419497f9722a3daafe3b4186f6b6457e09190a35050565b80516001600160a01b03811681146200015e57600080fd5b919050565b600080604083850312156200017757600080fd5b620001828362000146565b9150620001926020840162000146565b90509250929050565b611af780620001ab6000396000f3fe608060405234801561001057600080fd5b50600436106101575760003560e01c80639cd441da116100c3578063d789760e1161007c578063d789760e14610297578063e6306388146102a0578063e668ffd3146102b3578063f2fde38b146102c6578063f6abce29146102d9578063fd0320af146102ec57600080fd5b80639cd441da14610217578063a75b1adc1461022a578063a8471ada14610233578063a98ad46c1461023c578063b27a04841461024f578063c109a6dc1461027757600080fd5b8063783686391161011557806378368639146101c75780637ed09784146101da5780638da5cb5b146101e257806398d5fdca146101f35780639bc29062146101fb5780639c8f9f231461020457600080fd5b80628dd0da1461015c57806306447331146101785780632b4116f71461018157806347bf474b146101ac5780634d47f7c5146101b6578063715018a6146101bf575b600080fd5b61016560075481565b6040519081526020015b60405180910390f35b61016560085481565b600254610194906001600160a01b031681565b6040516001600160a01b03909116815260200161016f565b6101b46102f5565b005b61016560045481565b6101b461044b565b6101b46101d53660046118dc565b61045d565b610165603281565b6000546001600160a01b0316610194565b6101656105b2565b61016560055481565b6101b461021236600461190c565b6105eb565b6101b4610225366004611925565b61089e565b610165600c5481565b610165600b5481565b600354610194906001600160a01b031681565b61026261025d36600461190c565b610b8a565b6040805192835260208301919091520161016f565b6101656102853660046118dc565b60096020526000908152604090205481565b610165600a5481565b6101b46102ae366004611925565b610bb8565b6101656102c136600461190c565b610e25565b6101b46102d43660046118dc565b611125565b6101656102e736600461190c565b61119b565b61016560065481565b6102fd611479565b6103056114d3565b600b548061034e5760405162461bcd60e51b8152602060048201526011602482015270139bc8199959481d1bc818dbdb1b1958dd607a1b60448201526064015b60405180910390fd5b6000600b5560025460405163a9059cbb60e01b8152336004820152602481018390526001600160a01b039091169063a9059cbb906044016020604051808303816000875af11580156103a4573d6000803e3d6000fd5b505050506040513d601f19601f820116820180604052508101906103c89190611947565b6104065760405162461bcd60e51b815260206004820152600f60248201526e151c985b9cd9995c8819985a5b1959608a1b6044820152606401610345565b60408051828152600060208201527faf7c505ee772ec188af7067e1f73db08ab028e3d564273442b907742b9c41fa0910160405180910390a15061044960018055565b565b610453611479565b610449600061152c565b610465611479565b61046d6114d3565b600c54806104b15760405162461bcd60e51b8152602060048201526011602482015270139bc8199959481d1bc818dbdb1b1958dd607a1b6044820152606401610345565b6000600c5560025460405163a9059cbb60e01b81526001600160a01b038481166004830152602482018490529091169063a9059cbb906044016020604051808303816000875af1158015610509573d6000803e3d6000fd5b505050506040513d601f19601f8201168201806040525081019061052d9190611947565b61056b5760405162461bcd60e51b815260206004820152600f60248201526e151c985b9cd9995c8819985a5b1959608a1b6044820152606401610345565b6040805160008152602081018390527faf7c505ee772ec188af7067e1f73db08ab028e3d564273442b907742b9c41fa0910160405180910390a1506105af60018055565b50565b60006005546000036105c45750600090565b6005546004546105dc90670de0b6b3a764000061197f565b6105e6919061199c565b905090565b6105f36114d3565b6000811180156106125750336000908152600960205260409020548111155b61064f5760405162461bcd60e51b815260206004820152600e60248201526d496e76616c69642073686172657360901b6044820152606401610345565b6000600a5482600454610662919061197f565b61066c919061199c565b90506000600a5483600554610681919061197f565b61068b919061199c565b905060008211801561069d5750600081115b6106b95760405162461bcd60e51b8152600401610345906119be565b81600460008282546106cb91906119ee565b9250508190555080600560008282546106e491906119ee565b909155505033600090815260096020526040812080548592906107089084906119ee565b9250508190555082600a600082825461072191906119ee565b909155505060025460405163a9059cbb60e01b8152336004820152602481018490526001600160a01b039091169063a9059cbb906044016020604051808303816000875af1158015610777573d6000803e3d6000fd5b505050506040513d601f19601f8201168201806040525081019061079b9190611947565b6107b75760405162461bcd60e51b815260040161034590611a01565b60035460405163a9059cbb60e01b8152336004820152602481018390526001600160a01b039091169063a9059cbb906044016020604051808303816000875af1158015610808573d6000803e3d6000fd5b505050506040513d601f19601f8201168201806040525081019061082c9190611947565b6108485760405162461bcd60e51b815260040161034590611a30565b604080518381526020810183905290810184905233907f1dc8bb69df2b8e91fbdcbfcf93d951b3f0000f085a95fe3f7946d6161439245d9060600160405180910390a261089361157c565b50506105af60018055565b6108a66114d3565b6000821180156108b65750600081115b6108f45760405162461bcd60e51b815260206004820152600f60248201526e496e76616c696420616d6f756e747360881b6044820152606401610345565b600060045411801561090857506000600554115b61094b5760405162461bcd60e51b81526020600482015260146024820152734e6f20696e697469616c206c697175696469747960601b6044820152606401610345565b6002546040516323b872dd60e01b81526001600160a01b03909116906323b872dd9061097f90339030908790600401611a5e565b6020604051808303816000875af115801561099e573d6000803e3d6000fd5b505050506040513d601f19601f820116820180604052508101906109c29190611947565b6109de5760405162461bcd60e51b815260040161034590611a01565b6003546040516323b872dd60e01b81526001600160a01b03909116906323b872dd90610a1290339030908690600401611a5e565b6020604051808303816000875af1158015610a31573d6000803e3d6000fd5b505050506040513d601f19601f82011682018060405250810190610a559190611947565b610a715760405162461bcd60e51b815260040161034590611a30565b6000600454600a5484610a84919061197f565b610a8e919061199c565b90506000600554600a5484610aa3919061197f565b610aad919061199c565b90506000818310610abe5781610ac0565b825b90508460046000828254610ad49190611a82565b925050819055508360056000828254610aed9190611a82565b90915550503360009081526009602052604081208054839290610b11908490611a82565b9250508190555080600a6000828254610b2a9190611a82565b9091555050604080518681526020810186905290810182905233907f64b83944e79c3ce8d4c297411de637c3e102d064677aac0c163976ebdcd6f50e9060600160405180910390a2610b7a61157c565b505050610b8660018055565b5050565b600d8181548110610b9a57600080fd5b60009182526020909120600290910201805460019091015490915082565b610bc0611479565b610bc86114d3565b600454158015610bd85750600554155b610c245760405162461bcd60e51b815260206004820152601d60248201527f4c697175696469747920616c726561647920696e697469616c697a65640000006044820152606401610345565b600082118015610c345750600081115b610c725760405162461bcd60e51b815260206004820152600f60248201526e496e76616c696420616d6f756e747360881b6044820152606401610345565b6002546040516323b872dd60e01b81526001600160a01b03909116906323b872dd90610ca690339030908790600401611a5e565b6020604051808303816000875af1158015610cc5573d6000803e3d6000fd5b505050506040513d601f19601f82011682018060405250810190610ce99190611947565b610d055760405162461bcd60e51b815260040161034590611a01565b6003546040516323b872dd60e01b81526001600160a01b03909116906323b872dd90610d3990339030908690600401611a5e565b6020604051808303816000875af1158015610d58573d6000803e3d6000fd5b505050506040513d601f19601f82011682018060405250810190610d7c9190611947565b610d985760405162461bcd60e51b815260040161034590611a30565b600482905560058190556000610db6610db1838561197f565b61171b565b33600081815260096020908152604091829020849055600a8490558151878152908101869052908101839052919250907f64b83944e79c3ce8d4c297411de637c3e102d064677aac0c163976ebdcd6f50e9060600160405180910390a2610e1b61157c565b50610b8660018055565b6000610e2f6114d3565b60008211610e705760405162461bcd60e51b815260206004820152600e60248201526d125b9d985b1a5908185b5bdd5b9d60921b6044820152606401610345565b6000612710610e806032826119ee565b610e8a908561197f565b610e94919061199c565b90506000610ea78260055460045461189c565b905060008111610ec95760405162461bcd60e51b8152600401610345906119be565b6003546040516323b872dd60e01b81526001600160a01b03909116906323b872dd90610efd90339030908990600401611a5e565b6020604051808303816000875af1158015610f1c573d6000803e3d6000fd5b505050506040513d601f19601f82011682018060405250810190610f409190611947565b610f5c5760405162461bcd60e51b815260040161034590611a30565b6000610f6883866119ee565b90506000606460065483610f7c919061197f565b610f86919061199c565b90506000606460075484610f9a919061197f565b610fa4919061199c565b9050600081610fb384866119ee565b610fbd91906119ee565b9050610fc983896119ee565b60056000828254610fda9190611a82565b925050819055508460046000828254610ff391906119ee565b9250508190555081600b600082825461100c9190611a82565b9250508190555080600c60008282546110259190611a82565b909155505060025460405163a9059cbb60e01b8152336004820152602481018790526001600160a01b039091169063a9059cbb906044016020604051808303816000875af115801561107b573d6000803e3d6000fd5b505050506040513d601f19601f8201168201806040525081019061109f9190611947565b6110bb5760405162461bcd60e51b815260040161034590611a01565b6040805160008152602081018a90529081018690526060810185905233907f176648f1f11cda284c124490086be42a926ddf0ae887ebe7b1d6b337d8942756906080015b60405180910390a261110f61157c565b509294505050505061112060018055565b919050565b61112d611479565b6001600160a01b0381166111925760405162461bcd60e51b815260206004820152602660248201527f4f776e61626c653a206e6577206f776e657220697320746865207a65726f206160448201526564647265737360d01b6064820152608401610345565b6105af8161152c565b60006111a56114d3565b600082116111e65760405162461bcd60e51b815260206004820152600e60248201526d125b9d985b1a5908185b5bdd5b9d60921b6044820152606401610345565b60006127106111f66032826119ee565b611200908561197f565b61120a919061199c565b9050600061121d8260045460055461189c565b90506000811161123f5760405162461bcd60e51b8152600401610345906119be565b6002546040516323b872dd60e01b81526001600160a01b03909116906323b872dd9061127390339030908990600401611a5e565b6020604051808303816000875af1158015611292573d6000803e3d6000fd5b505050506040513d601f19601f820116820180604052508101906112b69190611947565b6112d25760405162461bcd60e51b815260040161034590611a01565b60006112de83866119ee565b905060006064600654836112f2919061197f565b6112fc919061199c565b90506000606460075484611310919061197f565b61131a919061199c565b905060008161132984866119ee565b61133391906119ee565b905061133f83896119ee565b600460008282546113509190611a82565b92505081905550846005600082825461136991906119ee565b9250508190555081600b60008282546113829190611a82565b9250508190555080600c600082825461139b9190611a82565b909155505060035460405163a9059cbb60e01b8152336004820152602481018790526001600160a01b039091169063a9059cbb906044016020604051808303816000875af11580156113f1573d6000803e3d6000fd5b505050506040513d601f19601f820116820180604052508101906114159190611947565b6114315760405162461bcd60e51b815260040161034590611a30565b6040805160018152602081018a90529081018690526060810185905233907f176648f1f11cda284c124490086be42a926ddf0ae887ebe7b1d6b337d8942756906080016110ff565b6000546001600160a01b031633146104495760405162461bcd60e51b815260206004820181905260248201527f4f776e61626c653a2063616c6c6572206973206e6f7420746865206f776e65726044820152606401610345565b6002600154036115255760405162461bcd60e51b815260206004820152601f60248201527f5265656e7472616e637947756172643a207265656e7472616e742063616c6c006044820152606401610345565b6002600155565b600080546001600160a01b038381166001600160a01b0319831681178455604051919092169283917f8be0079c531659141344cd1fd0a4f28419497f9722a3daafe3b4186f6b6457e09190a35050565b600060055460001461159057600554611593565b60015b6004546115a890670de0b6b3a764000061197f565b6115b2919061199c565b6040805180820190915242815260208101828152600d8054600181018255600082905292517fd7b6990105719101dabeb77144f2a3385c8033acd3af97e9423a695e81ad1eb560029094029384015590517fd7b6990105719101dabeb77144f2a3385c8033acd3af97e9423a695e81ad1eb690920191909155549091506103e810156116e55760005b600d5461164a906001906119ee565b8110156116b457600d61165e826001611a82565b8154811061166e5761166e611a95565b9060005260206000209060020201600d828154811061168f5761168f611a95565b600091825260209091208254600290920201908155600191820154908201550161163b565b50600d8054806116c6576116c6611aab565b6000828152602081206002600019909301928302018181556001015590555b6040518181527f66cbca4f3c64fecf1dcb9ce094abcf7f68c3450a1d4e3a8e917dd621edb4ebe09060200160405180910390a150565b60008160000361172d57506000919050565b816001600160801b82106117465760809190911c9060401b5b6801000000000000000082106117615760409190911c9060201b5b64010000000082106117785760209190911c9060101b5b62010000821061178d5760109190911c9060081b5b61010082106117a15760089190911c9060041b5b601082106117b45760049190911c9060021b5b600882106117c05760011b5b60016117cc828661199c565b6117d69083611a82565b901c905060016117e6828661199c565b6117f09083611a82565b901c90506001611800828661199c565b61180a9083611a82565b901c9050600161181a828661199c565b6118249083611a82565b901c90506001611834828661199c565b61183e9083611a82565b901c9050600161184e828661199c565b6118589083611a82565b901c90506001611868828661199c565b6118729083611a82565b901c90506000611882828661199c565b90508082106118915780611893565b815b95945050505050565b6000806118a9838561197f565b905060006118b78686611a82565b905060006118c5828461199c565b90506118d181866119ee565b979650505050505050565b6000602082840312156118ee57600080fd5b81356001600160a01b038116811461190557600080fd5b9392505050565b60006020828403121561191e57600080fd5b5035919050565b6000806040838503121561193857600080fd5b50508035926020909101359150565b60006020828403121561195957600080fd5b8151801515811461190557600080fd5b634e487b7160e01b600052601160045260246000fd5b808202811582820484141761199657611996611969565b92915050565b6000826119b957634e487b7160e01b600052601260045260246000fd5b500490565b602080825260169082015275496e73756666696369656e74206c697175696469747960501b604082015260600190565b8181038181111561199657611996611969565b60208082526015908201527414d5541154881d1c985b9cd9995c8819985a5b1959605a1b604082015260600190565b6020808252601490820152731554d115081d1c985b9cd9995c8819985a5b195960621b604082015260600190565b6001600160a01b039384168152919092166020820152604081019190915260600190565b8082018082111561199657611996611969565b634e487b7160e01b600052603260045260246000fd5b634e487b7160e01b600052603160045260246000fdfea2646970667358221220399124ad18296fecd79395323e405538c6d9c8dad908a3aca7bdc8618221d05e64736f6c63430008180033",
  "linkReferences": {},
  "deployedLinkReferences": {}
}